{"abi":[{"type":"constructor","inputs":[],"stateMutability":"nonpayable"},{"type":"function","name":"ADMIN_ROLE","inputs":[],"outputs":[{"name":"","type":"bytes32","internalType":"bytes32"}],"stateMutability":"view"},{"type":"function","name":"DEFAULT_ADMIN_ROLE","inputs":[],"outputs":[{"name":"","type":"bytes32","internalType":"bytes32"}],"stateMutability":"view"},{"type":"function","name":"REQUIRED_VERIFICATIONS","inputs":[],"outputs":[{"name":"","type":"uint256","internalType":"uint256"}],"stateMutability":"view"},{"type":"function","name":"VERIFIER_ROLE","inputs":[],"outputs":[{"name":"","type":"bytes32","internalType":"bytes32"}],"stateMutability":"view"},{"type":"function","name":"approve","inputs":[{"name":"to","type":"address","internalType":"address"},{"name":"tokenId","type":"uint256","internalType":"uint256"}],"outputs":[],"stateMutability":"nonpayable"},{"type":"function","name":"balanceOf","inputs":[{"name":"owner","type":"address","internalType":"address"}],"outputs":[{"name":"","type":"uint256","internalType":"uint256"}],"stateMutability":"view"},{"type":"function","name":"getApproved","inputs":[{"name":"tokenId","type":"uint256","internalType":"uint256"}],"outputs":[{"name":"","type":"address","internalType":"address"}],"stateMutability":"view"},{"type":"function","name":"getLandDetails","inputs":[{"name":"tokenId","type":"uint256","internalType":"uint256"}],"outputs":[{"name":"","type":"tuple","internalType":"struct LandRegistry.LandMetadata","components":[{"name":"ipfsHash","type":"string","internalType":"string"},{"name":"area","type":"uint256","internalType":"uint256"},{"name":"price","type":"uint256","internalType":"uint256"},{"name":"location","type":"string","internalType":"string"},{"name":"currentOwner","type":"address","internalType":"address"},{"name":"status","type":"uint8","internalType":"enum LandRegistry.VerificationStatus"},{"name":"registeredAt","type":"uint256","internalType":"uint256"},{"name":"verifiedAt","type":"uint256","internalType":"uint256"},{"name":"verifiedBy","type":"address","internalType":"address"}]}],"stateMutability":"view"},{"type":"function","name":"getOwnerLands","inputs":[{"name":"owner","type":"address","internalType":"address"}],"outputs":[{"name":"","type":"uint256[]","internalType":"uint256[]"}],"stateMutability":"view"},{"type":"function","name":"getRoleAdmin","inputs":[{"name":"role","type":"bytes32","internalType":"bytes32"}],"outputs":[{"name":"","type":"bytes32","internalType":"bytes32"}],"stateMutability":"view"},{"type":"function","name":"getTotalLands","inputs":[],"outputs":[{"name":"","type":"uint256","internalType":"uint256"}],"stateMutability":"view"},{"type":"function","name":"getVerificationCount","inputs":[{"name":"tokenId","type":"uint256","internalType":"uint256"}],"outputs":[{"name":"","type":"uint256","internalType":"uint256"}],"stateMutability":"view"},{"type":"function","name":"grantRole","inputs":[{"name":"role","type":"bytes32","internalType":"bytes32"},{"name":"account","type":"address","internalType":"address"}],"outputs":[],"stateMutability":"nonpayable"},{"type":"function","name":"hasRole","inputs":[{"name":"role","type":"bytes32","internalType":"bytes32"},{"name":"account","type":"address","internalType":"address"}],"outputs":[{"name":"","type":"bool","internalType":"bool"}],"stateMutability":"view"},{"type":"function","name":"isApprovedForAll","inputs":[{"name":"owner","type":"address","internalType":"address"},{"name":"operator","type":"address","internalType":"address"}],"outputs":[{"name":"","type":"bool","internalType":"bool"}],"stateMutability":"view"},{"type":"function","name":"name","inputs":[],"outputs":[{"name":"","type":"string","internalType":"string"}],"stateMutability":"view"},{"type":"function","name":"ownerOf","inputs":[{"name":"tokenId","type":"uint256","internalType":"uint256"}],"outputs":[{"name":"","type":"address","internalType":"address"}],"stateMutability":"view"},{"type":"function","name":"registerLand","inputs":[{"name":"ipfsHash","type":"string","internalType":"string"},{"name":"area","type":"uint256","internalType":"uint256"},{"name":"price","type":"uint256","internalType":"uint256"},{"name":"location","type":"string","internalType":"string"}],"outputs":[{"name":"","type":"uint256","internalType":"uint256"}],"stateMutability":"nonpayable"},{"type":"function","name":"rejectLand","inputs":[{"name":"tokenId","type":"uint256","internalType":"uint256"},{"name":"reason","type":"string","internalType":"string"}],"outputs":[],"stateMutability":"nonpayable"},{"type":"function","name":"renounceRole","inputs":[{"name":"role","type":"bytes32","internalType":"bytes32"},{"name":"callerConfirmation","type":"address","internalType":"address"}],"outputs":[],"stateMutability":"nonpayable"},{"type":"function","name":"revokeRole","inputs":[{"name":"role","type":"bytes32","internalType":"bytes32"},{"name":"account","type":"address","internalType":"address"}],"outputs":[],"stateMutability":"nonpayable"},{"type":"function","name":"safeTransferFrom","inputs":[{"name":"from","type":"address","internalType":"address"},{"name":"to","type":"address","internalType":"address"},{"name":"tokenId","type":"uint256","internalType":"uint256"}],"outputs":[],"stateMutability":"nonpayable"},{"type":"function","name":"safeTransferFrom","inputs":[{"name":"from","type":"address","internalType":"address"},{"name":"to","type":"address","internalType":"address"},{"name":"tokenId","type":"uint256","internalType":"uint256"},{"name":"data","type":"bytes","internalType":"bytes"}],"outputs":[],"stateMutability":"nonpayable"},{"type":"function","name":"setApprovalForAll","inputs":[{"name":"operator","type":"address","internalType":"address"},{"name":"approved","type":"bool","internalType":"bool"}],"outputs":[],"stateMutability":"nonpayable"},{"type":"function","name":"supportsInterface","inputs":[{"name":"interfaceId","type":"bytes4","internalType":"bytes4"}],"outputs":[{"name":"","type":"bool","internalType":"bool"}],"stateMutability":"view"},{"type":"function","name":"symbol","inputs":[],"outputs":[{"name":"","type":"string","internalType":"string"}],"stateMutability":"view"},{"type":"function","name":"tokenURI","inputs":[{"name":"tokenId","type":"uint256","internalType":"uint256"}],"outputs":[{"name":"","type":"string","internalType":"string"}],"stateMutability":"view"},{"type":"function","name":"transferFrom","inputs":[{"name":"from","type":"address","internalType":"address"},{"name":"to","type":"address","internalType":"address"},{"name":"tokenId","type":"uint256","internalType":"uint256"}],"outputs":[],"stateMutability":"nonpayable"},{"type":"function","name":"transferLand","inputs":[{"name":"to","type":"address","internalType":"address"},{"name":"tokenId","type":"uint256","internalType":"uint256"}],"outputs":[],"stateMutability":"nonpayable"},{"type":"function","name":"updateMetadata","inputs":[{"name":"tokenId","type":"uint256","internalType":"uint256"},{"name":"newIpfsHash","type":"string","internalType":"string"}],"outputs":[],"stateMutability":"nonpayable"},{"type":"function","name":"verifyLand","inputs":[{"name":"tokenId","type":"uint256","internalType":"uint256"},{"name":"verifierAddress","type":"address","internalType":"address"}],"outputs":[],"stateMutability":"nonpayable"},{"type":"event","name":"Approval","inputs":[{"name":"owner","type":"address","indexed":true,"internalType":"address"},{"name":"approved","type":"address","indexed":true,"internalType":"address"},{"name":"tokenId","type":"uint256","indexed":true,"internalType":"uint256"}],"anonymous":false},{"type":"event","name":"ApprovalForAll","inputs":[{"name":"owner","type":"address","indexed":true,"internalType":"address"},{"name":"operator","type":"address","indexed":true,"internalType":"address"},{"name":"approved","type":"bool","indexed":false,"internalType":"bool"}],"anonymous":false},{"type":"event","name":"BatchMetadataUpdate","inputs":[{"name":"_fromTokenId","type":"uint256","indexed":false,"internalType":"uint256"},{"name":"_toTokenId","type":"uint256","indexed":false,"internalType":"uint256"}],"anonymous":false},{"type":"event","name":"LandRegistered","inputs":[{"name":"tokenId","type":"uint256","indexed":true,"internalType":"uint256"},{"name":"owner","type":"address","indexed":true,"internalType":"address"},{"name":"ipfsHash","type":"string","indexed":false,"internalType":"string"},{"name":"area","type":"uint256","indexed":false,"internalType":"uint256"},{"name":"price","type":"uint256","indexed":false,"internalType":"uint256"}],"anonymous":false},{"type":"event","name":"LandRejected","inputs":[{"name":"tokenId","type":"uint256","indexed":true,"internalType":"uint256"},{"name":"verifier","type":"address","indexed":true,"internalType":"address"},{"name":"reason","type":"string","indexed":false,"internalType":"string"}],"anonymous":false},{"type":"event","name":"LandTransferred","inputs":[{"name":"tokenId","type":"uint256","indexed":true,"internalType":"uint256"},{"name":"from","type":"address","indexed":true,"internalType":"address"},{"name":"to","type":"address","indexed":true,"internalType":"address"},{"name":"timestamp","type":"uint256","indexed":false,"internalType":"uint256"}],"anonymous":false},{"type":"event","name":"LandVerified","inputs":[{"name":"tokenId","type":"uint256","indexed":true,"internalType":"uint256"},{"name":"verifier","type":"address","indexed":true,"internalType":"address"},{"name":"timestamp","type":"uint256","indexed":false,"internalType":"uint256"}],"anonymous":false},{"type":"event","name":"MetadataUpdate","inputs":[{"name":"_tokenId","type":"uint256","indexed":false,"internalType":"uint256"}],"anonymous":false},{"type":"event","name":"MetadataUpdated","inputs":[{"name":"tokenId","type":"uint256","indexed":true,"internalType":"uint256"},{"name":"newIpfsHash","type":"string","indexed":false,"internalType":"string"}],"anonymous":false},{"type":"event","name":"RoleAdminChanged","inputs":[{"name":"role","type":"bytes32","indexed":true,"internalType":"bytes32"},{"name":"previousAdminRole","type":"bytes32","indexed":true,"internalType":"bytes32"},{"name":"newAdminRole","type":"bytes32","indexed":true,"internalType":"bytes32"}],"anonymous":false},{"type":"event","name":"RoleGranted","inputs":[{"name":"role","type":"bytes32","indexed":true,"internalType":"bytes32"},{"name":"account","type":"address","indexed":true,"internalType":"address"},{"name":"sender","type":"address","indexed":true,"internalType":"address"}],"anonymous":false},{"type":"event","name":"RoleRevoked","inputs":[{"name":"role","type":"bytes32","indexed":true,"internalType":"bytes32"},{"name":"account","type":"address","indexed":true,"internalType":"address"},{"name":"sender","type":"address","indexed":true,"internalType":"address"}],"anonymous":false},{"type":"event","name":"Transfer","inputs":[{"name":"from","type":"address","indexed":true,"internalType":"address"},{"name":"to","type":"address","indexed":true,"internalType":"address"},{"name":"tokenId","type":"uint256","indexed":true,"internalType":"uint256"}],"anonymous":false},{"type":"error","name":"AccessControlBadConfirmation","inputs":[]},{"type":"error","name":"AccessControlUnauthorizedAccount","inputs":[{"name":"account","type":"address","internalType":"address"},{"name":"neededRole","type":"bytes32","internalType":"bytes32"}]},{"type":"error","name":"ERC721IncorrectOwner","inputs":[{"name":"sender","type":"address","internalType":"address"},{"name":"tokenId","type":"uint256","internalType":"uint256"},{"name":"owner","type":"address","internalType":"address"}]},{"type":"error","name":"ERC721InsufficientApproval","inputs":[{"name":"operator","type":"address","internalType":"address"},{"name":"tokenId","type":"uint256","internalType":"uint256"}]},{"type":"error","name":"ERC721InvalidApprover","inputs":[{"name":"approver","type":"address","internalType":"address"}]},{"type":"error","name":"ERC721InvalidOperator","inputs":[{"name":"operator","type":"address","internalType":"address"}]},{"type":"error","name":"ERC721InvalidOwner","inputs":[{"name":"owner","type":"address","internalType":"address"}]},{"type":"error","name":"ERC721InvalidReceiver","inputs":[{"name":"receiver","type":"address","internalType":"address"}]},{"type":"error","name":"ERC721InvalidSender","inputs":[{"name":"sender","type":"address","internalType":"address"}]},{"type":"error","name":"ERC721NonexistentToken","inputs":[{"name":"tokenId","type":"uint256","internalType":"uint256"}]}],"bytecode":{"object":"0x608060405234801562000010575f80fd5b506040518060400160405280600c81526020016b4c616e64526567697374727960a01b815250604051806040016040528060048152602001631310539160e21b815250815f908162000063919062000232565b50600162000072828262000232565b506200008391505f905033620000e4565b50620000b07fa49807205ce4d355092ef5a8a18f56e8913cf4a201fbe287825b095693c2177533620000e4565b50620000dd7f0ce23c3e399818cfee81a7ab0880f714e53d7672b08df0fa62f2843416e1ea0933620000e4565b50620002fe565b5f8281526007602090815260408083206001600160a01b038516845290915281205460ff166200018b575f8381526007602090815260408083206001600160a01b03861684529091529020805460ff19166001179055620001423390565b6001600160a01b0316826001600160a01b0316847f2f8788117e7eff1d82e926ec794901d17c78024a50270940304540a733656f0d60405160405180910390a45060016200018e565b505f5b92915050565b634e487b7160e01b5f52604160045260245ffd5b600181811c90821680620001bd57607f821691505b602082108103620001dc57634e487b7160e01b5f52602260045260245ffd5b50919050565b601f8211156200022d57805f5260205f20601f840160051c81016020851015620002095750805b601f840160051c820191505b818110156200022a575f815560010162000215565b50505b505050565b81516001600160401b038111156200024e576200024e62000194565b62000266816200025f8454620001a8565b84620001e2565b602080601f8311600181146200029c575f8415620002845750858301515b5f19600386901b1c1916600185901b178555620002f6565b5f85815260208120601f198616915b82811015620002cc57888601518255948401946001909101908401620002ab565b5085821015620002ea57878501515f19600388901b60f8161c191681555b505060018460011b0185555b505050505050565b612713806200030c5f395ff3fe608060405234801561000f575f80fd5b50600436106101dc575f3560e01c806375b238fc11610109578063bf5172d71161009e578063e7705db61161006e578063e7705db614610423578063e985e9c51461044a578063fa3a38481461045d578063fe0cb7dc1461047c575f80fd5b8063bf5172d7146103ca578063c87b56dd146103ea578063ca4e2979146103fd578063d547741f14610410575f80fd5b8063a217fddf116100d9578063a217fddf1461038a578063a22cb46514610391578063b3f40d6a146103a4578063b88d4fde146103b7575f80fd5b806375b238fc14610340578063842e7dba1461036757806391d148541461036f57806395d89b4114610382575f80fd5b80632f2ff15d1161017f57806353c8388e1161014f57806353c8388e146102f457806359122393146103075780636352211e1461031a57806370a082311461032d575f80fd5b80632f2ff15d146102b357806336568abe146102c657806342842e0e146102d95780634f7bd538146102ec575f80fd5b8063081812fc116101ba578063081812fc1461023e578063095ea7b31461026957806323b872dd1461027e578063248a9ca314610291575f80fd5b806301ffc9a7146101e0578063056826421461020857806306fdde0314610229575b5f80fd5b6101f36101ee366004611fbe565b61049c565b60405190151581526020015b60405180910390f35b61021b61021636600461207e565b6104ac565b6040519081526020016101ff565b6102316106e7565b6040516101ff919061213d565b61025161024c36600461214f565b610776565b6040516001600160a01b0390911681526020016101ff565b61027c610277366004612181565b61079d565b005b61027c61028c3660046121a9565b6107ac565b61021b61029f36600461214f565b5f9081526007602052604090206001015490565b61027c6102c13660046121e2565b610835565b61027c6102d43660046121e2565b610859565b61027c6102e73660046121a9565b610891565b61021b600381565b61027c61030236600461220c565b6108ab565b61027c61031536600461220c565b6109e8565b61025161032836600461214f565b610b24565b61021b61033b366004612250565b610b2e565b61021b7fa49807205ce4d355092ef5a8a18f56e8913cf4a201fbe287825b095693c2177581565b60085461021b565b6101f361037d3660046121e2565b610b73565b610231610b9d565b61021b5f81565b61027c61039f366004612269565b610bac565b61027c6103b2366004612181565b610bb7565b61027c6103c53660046122a2565b610d54565b6103dd6103d8366004612250565b610d6c565b6040516101ff919061230d565b6102316103f836600461214f565b610dd5565b61027c61040b3660046121e2565b610e56565b61027c61041e3660046121e2565b61117c565b61021b7f0ce23c3e399818cfee81a7ab0880f714e53d7672b08df0fa62f2843416e1ea0981565b6101f3610458366004612350565b6111a0565b61021b61046b36600461214f565b5f908152600b602052604090205490565b61048f61048a36600461214f565b6111cd565b6040516101ff91906123ac565b5f6104a6826113cd565b92915050565b5f808551116104fe5760405162461bcd60e51b81526020600482015260196024820152784950465320686173682063616e6e6f7420626520656d70747960381b60448201526064015b60405180910390fd5b5f841161054d5760405162461bcd60e51b815260206004820152601b60248201527f41726561206d7573742062652067726561746572207468616e2030000000000060448201526064016104f5565b600880545f918261055d8361247c565b909155506040805161012081018252888152602081018890529081018690526060810185905233608082015290915060a081015f8152426020808301919091525f60408084018290526060909301819052848152600990915220815181906105c59082612510565b506020820151600182015560408201516002820155606082015160038201906105ee9082612510565b5060808201516004820180546001600160a01b039092166001600160a01b031983168117825560a0850151926001600160a81b03191617600160a01b83600281111561063c5761063c612378565b021790555060c0820151600582015560e0820151600682015561010090910151600790910180546001600160a01b0319166001600160a01b03909216919091179055335f818152600a60209081526040808320805460018101825590845291909220018390555182907f0f22631b187cee535d0866556a899c9eecd339f80c9703e1057407b9f452bc1c906106d6908a908a908a906125cc565b60405180910390a395945050505050565b60605f80546106f590612494565b80601f016020809104026020016040519081016040528092919081815260200182805461072190612494565b801561076c5780601f106107435761010080835404028352916020019161076c565b820191905f5260205f20905b81548152906001019060200180831161074f57829003601f168201915b5050505050905090565b5f610780826113f1565b505f828152600460205260409020546001600160a01b03166104a6565b6107a8828233611429565b5050565b6001600160a01b0382166107d557604051633250574960e11b81525f60048201526024016104f5565b5f6107e1838333611436565b9050836001600160a01b0316816001600160a01b03161461082f576040516364283d7b60e01b81526001600160a01b03808616600483015260248201849052821660448201526064016104f5565b50505050565b5f8281526007602052604090206001015461084f81611528565b61082f8383611535565b6001600160a01b03811633146108825760405163334bd91960e11b815260040160405180910390fd5b61088c82826115c6565b505050565b61088c83838360405180602001604052805f815250610d54565b5f828152600960205260409020600401546001600160a01b0316331461090b5760405162461bcd60e51b81526020600482015260156024820152742cb7ba9030b932903737ba103a34329037bbb732b960591b60448201526064016104f5565b5f8151116109575760405162461bcd60e51b81526020600482015260196024820152784950465320686173682063616e6e6f7420626520656d70747960381b60448201526064016104f5565b5f82815260096020526040902061096e8282612510565b5060015f83815260096020526040902060040154600160a01b900460ff16600281111561099d5761099d612378565b036109ac576109ac8282611631565b817f459157ba24c7ab9878b165ef465fa6ae2ab42bcd8445f576be378768b0c47309826040516109dc919061213d565b60405180910390a25050565b7f0ce23c3e399818cfee81a7ab0880f714e53d7672b08df0fa62f2843416e1ea09610a1281611528565b5f838152600960205260409020600401546001600160a01b0316610a485760405162461bcd60e51b81526004016104f5906125f0565b5f8084815260096020526040902060040154600160a01b900460ff166002811115610a7557610a75612378565b14610ac25760405162461bcd60e51b815260206004820181905260248201527f4c616e64206973206e6f742070656e64696e6720766572696669636174696f6e60448201526064016104f5565b5f8381526009602052604090819020600401805460ff60a01b1916600160a11b17905551339084907f0bfb28b3bcbf7f14c446dcbef3400fd577659d1d8ce6f5a077d6ab8a2994613490610b1790869061213d565b60405180910390a3505050565b5f6104a6826113f1565b5f6001600160a01b038216610b58576040516322718ad960e21b81525f60048201526024016104f5565b506001600160a01b03165f9081526003602052604090205490565b5f9182526007602090815260408084206001600160a01b0393909316845291905290205460ff1690565b6060600180546106f590612494565b6107a8338383611680565b5f818152600960205260409020600401546001600160a01b03163314610c175760405162461bcd60e51b81526020600482015260156024820152742cb7ba9030b932903737ba103a34329037bbb732b960591b60448201526064016104f5565b60015f82815260096020526040902060040154600160a01b900460ff166002811115610c4557610c45612378565b14610ca15760405162461bcd60e51b815260206004820152602660248201527f4f6e6c79207665726966696564206c616e64732063616e206265207472616e7360448201526519995c9c995960d21b60648201526084016104f5565b33610cac818361173f565b6001600160a01b0383165f818152600a602090815260408083208054600181018255908452828420018690558583526009909152902060040180546001600160a01b0319169091179055610d018184846117f9565b826001600160a01b0316816001600160a01b0316837f20b4587b96d546fb8dda06f8a11cc80fd5debab09bf4795380734af50f3d259c42604051610d4791815260200190565b60405180910390a4505050565b610d5f8484846107ac565b61082f33858585856118a6565b6001600160a01b0381165f908152600a6020908152604091829020805483518184028101840190945280845260609392830182828015610dc957602002820191905f5260205f20905b815481526020019060010190808311610db5575b50505050509050919050565b6060610de0826113f1565b505f610df660408051602081019091525f815290565b90505f610e02846119ce565b905081515f03610e13579392505050565b805115610e45578181604051602001610e2d92919061261d565b60405160208183030381529060405292505050919050565b610e4e84611a63565b949350505050565b7f0ce23c3e399818cfee81a7ab0880f714e53d7672b08df0fa62f2843416e1ea09610e8081611528565b5f838152600960205260409020600401546001600160a01b0316610eb65760405162461bcd60e51b81526004016104f5906125f0565b5f8084815260096020526040902060040154600160a01b900460ff166002811115610ee357610ee3612378565b14610f305760405162461bcd60e51b815260206004820181905260248201527f4c616e64206973206e6f742070656e64696e6720766572696669636174696f6e60448201526064016104f5565b5f838152600c602090815260408083206001600160a01b038616845290915290205460ff1615610fae5760405162461bcd60e51b815260206004820152602360248201527f596f75206861766520616c72656164792076657269666965642074686973206c604482015262185b9960ea1b60648201526084016104f5565b5f838152600c602090815260408083206001600160a01b03861684528252808320805460ff19166001179055858352600b9091528120805491610ff08361247c565b90915550505f838152600b60205260409020546002190161114c575f8381526009602052604090206004015461102f906001600160a01b031684611ad4565b5f83815260096020526040902080546110ce91859161104d90612494565b80601f016020809104026020016040519081016040528092919081815260200182805461107990612494565b80156110c45780601f1061109b576101008083540402835291602001916110c4565b820191905f5260205f20905b8154815290600101906020018083116110a757829003601f168201915b5050505050611631565b5f8381526009602090815260409182902060048101805460ff60a01b1916600160a01b1790554260068201819055600790910180546001600160a01b0319166001600160a01b038716908117909155925190815285917f3a50d62f47e18d9f4e9816e3ff154bcc0d81d99bec4e87565299b7c5d1a0a61b9101610b17565b5f83815260096020526040902060070180546001600160a01b0384166001600160a01b0319909116179055505050565b5f8281526007602052604090206001015461119681611528565b61082f83836115c6565b6001600160a01b039182165f90815260056020908152604080832093909416825291909152205460ff1690565b6111d5611f41565b5f828152600960205260409020600401546001600160a01b031661120b5760405162461bcd60e51b81526004016104f5906125f0565b5f82815260096020526040908190208151610120810190925280548290829061123390612494565b80601f016020809104026020016040519081016040528092919081815260200182805461125f90612494565b80156112aa5780601f10611281576101008083540402835291602001916112aa565b820191905f5260205f20905b81548152906001019060200180831161128d57829003601f168201915b5050505050815260200160018201548152602001600282015481526020016003820180546112d790612494565b80601f016020809104026020016040519081016040528092919081815260200182805461130390612494565b801561134e5780601f106113255761010080835404028352916020019161134e565b820191905f5260205f20905b81548152906001019060200180831161133157829003601f168201915b505050918352505060048201546001600160a01b0381166020830152604090910190600160a01b900460ff16600281111561138b5761138b612378565b600281111561139c5761139c612378565b815260058201546020820152600682015460408201526007909101546001600160a01b031660609091015292915050565b5f6001600160e01b03198216637965db0b60e01b14806104a657506104a682611aed565b5f818152600260205260408120546001600160a01b0316806104a657604051637e27328960e01b8152600481018490526024016104f5565b61088c8383836001611b11565b5f828152600260205260408120546001600160a01b039081169083161561146257611462818486611c15565b6001600160a01b0381161561149c5761147d5f855f80611b11565b6001600160a01b0381165f90815260036020526040902080545f190190555b6001600160a01b038516156114ca576001600160a01b0385165f908152600360205260409020805460010190555b5f8481526002602052604080822080546001600160a01b0319166001600160a01b0389811691821790925591518793918516917fddf252ad1be2c89b69c2b068fc378daa952ba7f163c4a11628f55a4df523b3ef91a4949350505050565b6115328133611c79565b50565b5f6115408383610b73565b6115bf575f8381526007602090815260408083206001600160a01b03861684529091529020805460ff191660011790556115773390565b6001600160a01b0316826001600160a01b0316847f2f8788117e7eff1d82e926ec794901d17c78024a50270940304540a733656f0d60405160405180910390a45060016104a6565b505f6104a6565b5f6115d18383610b73565b156115bf575f8381526007602090815260408083206001600160a01b0386168085529252808320805460ff1916905551339286917ff6391f5c32d9c69d2a47ea670b442974b53935d1edc7fd64eb21e047a839171b9190a45060016104a6565b5f8281526006602052604090206116488282612510565b506040518281527ff8e1a15aba9398e019f0b49df1a4fde98ee17ae345cb5f6b5e2c27f5033e8ce79060200160405180910390a15050565b6001600160a01b0383166116a95760405163a9fbf51f60e01b81525f60048201526024016104f5565b6001600160a01b0382166116db57604051630b61174360e31b81526001600160a01b03831660048201526024016104f5565b6001600160a01b038381165f81815260056020908152604080832094871680845294825291829020805460ff191686151590811790915591519182527f17307eab39ab6107e8899845ad3d59bd9653f200f220920489ca2b5937696c319101610b17565b6001600160a01b0382165f908152600a60205260408120905b815481101561082f57828282815481106117745761177461264b565b905f5260205f200154036117f157815482906117929060019061265f565b815481106117a2576117a261264b565b905f5260205f2001548282815481106117bd576117bd61264b565b905f5260205f200181905550818054806117d9576117d9612672565b600190038181905f5260205f20015f9055905561082f565b600101611758565b6001600160a01b03821661182257604051633250574960e11b81525f60048201526024016104f5565b5f61182e83835f611436565b90506001600160a01b03811661185a57604051637e27328960e01b8152600481018390526024016104f5565b836001600160a01b0316816001600160a01b03161461082f576040516364283d7b60e01b81526001600160a01b03808616600483015260248201849052821660448201526064016104f5565b6001600160a01b0383163b156119c757604051630a85bd0160e11b81526001600160a01b0384169063150b7a02906118e8908890889087908790600401612686565b6020604051808303815f875af1925050508015611922575060408051601f3d908101601f1916820190925261191f918101906126c2565b60015b611989573d80801561194f576040519150601f19603f3d011682016040523d82523d5f602084013e611954565b606091505b5080515f0361198157604051633250574960e11b81526001600160a01b03851660048201526024016104f5565b805160208201fd5b6001600160e01b03198116630a85bd0160e11b146119c557604051633250574960e11b81526001600160a01b03851660048201526024016104f5565b505b5050505050565b5f8181526006602052604090208054606091906119ea90612494565b80601f0160208091040260200160405190810160405280929190818152602001828054611a1690612494565b8015610dc95780601f10611a3857610100808354040283529160200191610dc9565b820191905f5260205f20905b815481529060010190602001808311611a445750939695505050505050565b6060611a6e826113f1565b505f611a8460408051602081019091525f815290565b90505f815111611aa25760405180602001604052805f815250611acd565b80611aac84611cb2565b604051602001611abd92919061261d565b6040516020818303038152906040525b9392505050565b6107a8828260405180602001604052805f815250611d42565b5f6001600160e01b03198216632483248360e11b14806104a657506104a682611d59565b8080611b2557506001600160a01b03821615155b15611be6575f611b34846113f1565b90506001600160a01b03831615801590611b605750826001600160a01b0316816001600160a01b031614155b8015611b735750611b7181846111a0565b155b15611b9c5760405163a9fbf51f60e01b81526001600160a01b03841660048201526024016104f5565b8115611be45783856001600160a01b0316826001600160a01b03167f8c5be1e5ebec7d5bd14f71427d1e84f3dd0314c0f7b2291e5b200ac8c7c3b92560405160405180910390a45b505b50505f90815260046020526040902080546001600160a01b0319166001600160a01b0392909216919091179055565b611c20838383611da8565b61088c576001600160a01b038316611c4e57604051637e27328960e01b8152600481018290526024016104f5565b60405163177e802f60e01b81526001600160a01b0383166004820152602481018290526044016104f5565b611c838282610b73565b6107a85760405163e2517d3f60e01b81526001600160a01b0382166004820152602481018390526044016104f5565b60605f611cbe83611e09565b60010190505f8167ffffffffffffffff811115611cdd57611cdd611fd9565b6040519080825280601f01601f191660200182016040528015611d07576020820181803683370190505b5090508181016020015b5f19016f181899199a1a9b1b9c1cb0b131b232b360811b600a86061a8153600a8504945084611d1157509392505050565b611d4c8383611ee0565b61088c335f8585856118a6565b5f6001600160e01b031982166380ac58cd60e01b1480611d8957506001600160e01b03198216635b5e139f60e01b145b806104a657506301ffc9a760e01b6001600160e01b03198316146104a6565b5f6001600160a01b03831615801590610e4e5750826001600160a01b0316846001600160a01b03161480611de15750611de184846111a0565b80610e4e5750505f908152600460205260409020546001600160a01b03908116911614919050565b5f8072184f03e93ff9f4daa797ed6e38ed64bf6a1f0160401b8310611e475772184f03e93ff9f4daa797ed6e38ed64bf6a1f0160401b830492506040015b6d04ee2d6d415b85acef81000000008310611e73576d04ee2d6d415b85acef8100000000830492506020015b662386f26fc100008310611e9157662386f26fc10000830492506010015b6305f5e1008310611ea9576305f5e100830492506008015b6127108310611ebd57612710830492506004015b60648310611ecf576064830492506002015b600a83106104a65760010192915050565b6001600160a01b038216611f0957604051633250574960e11b81525f60048201526024016104f5565b5f611f1583835f611436565b90506001600160a01b0381161561088c576040516339e3563760e11b81525f60048201526024016104f5565b604051806101200160405280606081526020015f81526020015f8152602001606081526020015f6001600160a01b031681526020015f6002811115611f8857611f88612378565b81526020015f81526020015f81526020015f6001600160a01b031681525090565b6001600160e01b031981168114611532575f80fd5b5f60208284031215611fce575f80fd5b8135611acd81611fa9565b634e487b7160e01b5f52604160045260245ffd5b5f67ffffffffffffffff8084111561200757612007611fd9565b604051601f8501601f19908116603f0116810190828211818310171561202f5761202f611fd9565b81604052809350858152868686011115612047575f80fd5b858560208301375f602087830101525050509392505050565b5f82601f83011261206f575f80fd5b611acd83833560208501611fed565b5f805f8060808587031215612091575f80fd5b843567ffffffffffffffff808211156120a8575f80fd5b6120b488838901612060565b9550602087013594506040870135935060608701359150808211156120d7575f80fd5b506120e487828801612060565b91505092959194509250565b5f5b8381101561210a5781810151838201526020016120f2565b50505f910152565b5f81518084526121298160208601602086016120f0565b601f01601f19169290920160200192915050565b602081525f611acd6020830184612112565b5f6020828403121561215f575f80fd5b5035919050565b80356001600160a01b038116811461217c575f80fd5b919050565b5f8060408385031215612192575f80fd5b61219b83612166565b946020939093013593505050565b5f805f606084860312156121bb575f80fd5b6121c484612166565b92506121d260208501612166565b9150604084013590509250925092565b5f80604083850312156121f3575f80fd5b8235915061220360208401612166565b90509250929050565b5f806040838503121561221d575f80fd5b82359150602083013567ffffffffffffffff81111561223a575f80fd5b61224685828601612060565b9150509250929050565b5f60208284031215612260575f80fd5b611acd82612166565b5f806040838503121561227a575f80fd5b61228383612166565b915060208301358015158114612297575f80fd5b809150509250929050565b5f805f80608085870312156122b5575f80fd5b6122be85612166565b93506122cc60208601612166565b925060408501359150606085013567ffffffffffffffff8111156122ee575f80fd5b8501601f810187136122fe575f80fd5b6120e487823560208401611fed565b602080825282518282018190525f9190848201906040850190845b8181101561234457835183529284019291840191600101612328565b50909695505050505050565b5f8060408385031215612361575f80fd5b61236a83612166565b915061220360208401612166565b634e487b7160e01b5f52602160045260245ffd5b600381106123a857634e487b7160e01b5f52602160045260245ffd5b9052565b602081525f82516101208060208501526123ca610140850183612112565b915060208501516040850152604085015160608501526060850151601f198584030160808601526123fb8382612112565b925050608085015161241860a08601826001600160a01b03169052565b5060a085015161242b60c086018261238c565b5060c085015160e085015260e085015161010081818701528087015191505061245e828601826001600160a01b03169052565b5090949350505050565b634e487b7160e01b5f52601160045260245ffd5b5f6001820161248d5761248d612468565b5060010190565b600181811c908216806124a857607f821691505b6020821081036124c657634e487b7160e01b5f52602260045260245ffd5b50919050565b601f82111561088c57805f5260205f20601f840160051c810160208510156124f15750805b601f840160051c820191505b818110156119c7575f81556001016124fd565b815167ffffffffffffffff81111561252a5761252a611fd9565b61253e816125388454612494565b846124cc565b602080601f831160018114612571575f841561255a5750858301515b5f19600386901b1c1916600185901b1785556119c5565b5f85815260208120601f198616915b8281101561259f57888601518255948401946001909101908401612580565b50858210156125bc57878501515f19600388901b60f8161c191681555b5050505050600190811b01905550565b606081525f6125de6060830186612112565b60208301949094525060400152919050565b60208082526013908201527213185b9908191bd95cc81b9bdd08195e1a5cdd606a1b604082015260600190565b5f835161262e8184602088016120f0565b8351908301906126428183602088016120f0565b01949350505050565b634e487b7160e01b5f52603260045260245ffd5b818103818111156104a6576104a6612468565b634e487b7160e01b5f52603160045260245ffd5b6001600160a01b03858116825284166020820152604081018390526080606082018190525f906126b890830184612112565b9695505050505050565b5f602082840312156126d2575f80fd5b8151611acd81611fa956fea2646970667358221220264088c20809767e800fcb87573d5929be5a008284741070a04c70bffed8611f64736f6c63430008180033","linkReferences":{}},"methodIdentifiers":{"ADMIN_ROLE()":"75b238fc","DEFAULT_ADMIN_ROLE()":"a217fddf","REQUIRED_VERIFICATIONS()":"4f7bd538","VERIFIER_ROLE()":"e7705db6","approve(address,uint256)":"095ea7b3","balanceOf(address)":"70a08231","getApproved(uint256)":"081812fc","getLandDetails(uint256)":"fe0cb7dc","getOwnerLands(address)":"bf5172d7","getRoleAdmin(bytes32)":"248a9ca3","getTotalLands()":"842e7dba","getVerificationCount(uint256)":"fa3a3848","grantRole(bytes32,address)":"2f2ff15d","hasRole(bytes32,address)":"91d14854","isApprovedForAll(address,address)":"e985e9c5","name()":"06fdde03","ownerOf(uint256)":"6352211e","registerLand(string,uint256,uint256,string)":"05682642","rejectLand(uint256,string)":"59122393","renounceRole(bytes32,address)":"36568abe","revokeRole(bytes32,address)":"d547741f","safeTransferFrom(address,address,uint256)":"42842e0e","safeTransferFrom(address,address,uint256,bytes)":"b88d4fde","setApprovalForAll(address,bool)":"a22cb465","supportsInterface(bytes4)":"01ffc9a7","symbol()":"95d89b41","tokenURI(uint256)":"c87b56dd","transferFrom(address,address,uint256)":"23b872dd","transferLand(address,uint256)":"b3f40d6a","updateMetadata(uint256,string)":"53c8388e","verifyLand(uint256,address)":"ca4e2979"},"id":40}