{"abi":[{"type":"constructor","inputs":[],"stateMutability":"nonpayable"},{"type":"function","name":"DEFAULT_ADMIN_ROLE","inputs":[],"outputs":[{"name":"","type":"bytes32","internalType":"bytes32"}],"stateMutability":"view"},{"type":"function","name":"SUPER_ADMIN_ROLE","inputs":[],"outputs":[{"name":"","type":"bytes32","internalType":"bytes32"}],"stateMutability":"view"},{"type":"function","name":"VERIFIER_ROLE","inputs":[],"outputs":[{"name":"","type":"bytes32","internalType":"bytes32"}],"stateMutability":"view"},{"type":"function","name":"addVerifier","inputs":[{"name":"verifierAddress","type":"address","internalType":"address"},{"name":"name","type":"string","internalType":"string"},{"name":"governmentId","type":"string","internalType":"string"},{"name":"jurisdiction","type":"string","internalType":"string"}],"outputs":[],"stateMutability":"nonpayable"},{"type":"function","name":"createDispute","inputs":[{"name":"landTokenId","type":"uint256","internalType":"uint256"},{"name":"reason","type":"string","internalType":"string"}],"outputs":[{"name":"","type":"uint256","internalType":"uint256"}],"stateMutability":"nonpayable"},{"type":"function","name":"deactivateVerifier","inputs":[{"name":"verifierAddress","type":"address","internalType":"address"}],"outputs":[],"stateMutability":"nonpayable"},{"type":"function","name":"getAllDisputes","inputs":[],"outputs":[{"name":"","type":"uint256[]","internalType":"uint256[]"}],"stateMutability":"view"},{"type":"function","name":"getAllVerifiers","inputs":[],"outputs":[{"name":"","type":"address[]","internalType":"address[]"}],"stateMutability":"view"},{"type":"function","name":"getDispute","inputs":[{"name":"disputeId","type":"uint256","internalType":"uint256"}],"outputs":[{"name":"","type":"tuple","internalType":"struct LandVerification.Dispute","components":[{"name":"landTokenId","type":"uint256","internalType":"uint256"},{"name":"disputedBy","type":"address","internalType":"address"},{"name":"reason","type":"string","internalType":"string"},{"name":"createdAt","type":"uint256","internalType":"uint256"},{"name":"isResolved","type":"bool","internalType":"bool"},{"name":"resolvedBy","type":"address","internalType":"address"},{"name":"resolvedAt","type":"uint256","internalType":"uint256"},{"name":"resolution","type":"string","internalType":"string"}]}],"stateMutability":"view"},{"type":"function","name":"getPendingDisputes","inputs":[],"outputs":[{"name":"","type":"uint256[]","internalType":"uint256[]"}],"stateMutability":"view"},{"type":"function","name":"getRoleAdmin","inputs":[{"name":"role","type":"bytes32","internalType":"bytes32"}],"outputs":[{"name":"","type":"bytes32","internalType":"bytes32"}],"stateMutability":"view"},{"type":"function","name":"getVerifier","inputs":[{"name":"verifierAddress","type":"address","internalType":"address"}],"outputs":[{"name":"","type":"tuple","internalType":"struct LandVerification.Verifier","components":[{"name":"verifierAddress","type":"address","internalType":"address"},{"name":"name","type":"string","internalType":"string"},{"name":"governmentId","type":"string","internalType":"string"},{"name":"jurisdiction","type":"string","internalType":"string"},{"name":"isActive","type":"bool","internalType":"bool"},{"name":"addedAt","type":"uint256","internalType":"uint256"},{"name":"verificationCount","type":"uint256","internalType":"uint256"}]}],"stateMutability":"view"},{"type":"function","name":"grantRole","inputs":[{"name":"role","type":"bytes32","internalType":"bytes32"},{"name":"account","type":"address","internalType":"address"}],"outputs":[],"stateMutability":"nonpayable"},{"type":"function","name":"hasRole","inputs":[{"name":"role","type":"bytes32","internalType":"bytes32"},{"name":"account","type":"address","internalType":"address"}],"outputs":[{"name":"","type":"bool","internalType":"bool"}],"stateMutability":"view"},{"type":"function","name":"incrementVerificationCount","inputs":[{"name":"verifierAddress","type":"address","internalType":"address"}],"outputs":[],"stateMutability":"nonpayable"},{"type":"function","name":"isActiveVerifier","inputs":[{"name":"verifierAddress","type":"address","internalType":"address"}],"outputs":[{"name":"","type":"bool","internalType":"bool"}],"stateMutability":"view"},{"type":"function","name":"reactivateVerifier","inputs":[{"name":"verifierAddress","type":"address","internalType":"address"}],"outputs":[],"stateMutability":"nonpayable"},{"type":"function","name":"removeVerifier","inputs":[{"name":"verifierAddress","type":"address","internalType":"address"}],"outputs":[],"stateMutability":"nonpayable"},{"type":"function","name":"renounceRole","inputs":[{"name":"role","type":"bytes32","internalType":"bytes32"},{"name":"callerConfirmation","type":"address","internalType":"address"}],"outputs":[],"stateMutability":"nonpayable"},{"type":"function","name":"resolveDispute","inputs":[{"name":"disputeId","type":"uint256","internalType":"uint256"},{"name":"resolution","type":"string","internalType":"string"}],"outputs":[],"stateMutability":"nonpayable"},{"type":"function","name":"revokeRole","inputs":[{"name":"role","type":"bytes32","internalType":"bytes32"},{"name":"account","type":"address","internalType":"address"}],"outputs":[],"stateMutability":"nonpayable"},{"type":"function","name":"supportsInterface","inputs":[{"name":"interfaceId","type":"bytes4","internalType":"bytes4"}],"outputs":[{"name":"","type":"bool","internalType":"bool"}],"stateMutability":"view"},{"type":"event","name":"DisputeCreated","inputs":[{"name":"disputeId","type":"uint256","indexed":true,"internalType":"uint256"},{"name":"landTokenId","type":"uint256","indexed":true,"internalType":"uint256"},{"name":"disputedBy","type":"address","indexed":true,"internalType":"address"},{"name":"reason","type":"string","indexed":false,"internalType":"string"}],"anonymous":false},{"type":"event","name":"DisputeResolved","inputs":[{"name":"disputeId","type":"uint256","indexed":true,"internalType":"uint256"},{"name":"resolvedBy","type":"address","indexed":true,"internalType":"address"},{"name":"resolution","type":"string","indexed":false,"internalType":"string"}],"anonymous":false},{"type":"event","name":"RoleAdminChanged","inputs":[{"name":"role","type":"bytes32","indexed":true,"internalType":"bytes32"},{"name":"previousAdminRole","type":"bytes32","indexed":true,"internalType":"bytes32"},{"name":"newAdminRole","type":"bytes32","indexed":true,"internalType":"bytes32"}],"anonymous":false},{"type":"event","name":"RoleGranted","inputs":[{"name":"role","type":"bytes32","indexed":true,"internalType":"bytes32"},{"name":"account","type":"address","indexed":true,"internalType":"address"},{"name":"sender","type":"address","indexed":true,"internalType":"address"}],"anonymous":false},{"type":"event","name":"RoleRevoked","inputs":[{"name":"role","type":"bytes32","indexed":true,"internalType":"bytes32"},{"name":"account","type":"address","indexed":true,"internalType":"address"},{"name":"sender","type":"address","indexed":true,"internalType":"address"}],"anonymous":false},{"type":"event","name":"VerifierAdded","inputs":[{"name":"verifierAddress","type":"address","indexed":true,"internalType":"address"},{"name":"name","type":"string","indexed":false,"internalType":"string"},{"name":"jurisdiction","type":"string","indexed":false,"internalType":"string"}],"anonymous":false},{"type":"event","name":"VerifierDeactivated","inputs":[{"name":"verifierAddress","type":"address","indexed":true,"internalType":"address"},{"name":"timestamp","type":"uint256","indexed":false,"internalType":"uint256"}],"anonymous":false},{"type":"event","name":"VerifierReactivated","inputs":[{"name":"verifierAddress","type":"address","indexed":true,"internalType":"address"},{"name":"timestamp","type":"uint256","indexed":false,"internalType":"uint256"}],"anonymous":false},{"type":"event","name":"VerifierRemoved","inputs":[{"name":"verifierAddress","type":"address","indexed":true,"internalType":"address"},{"name":"timestamp","type":"uint256","indexed":false,"internalType":"uint256"}],"anonymous":false},{"type":"error","name":"AccessControlBadConfirmation","inputs":[]},{"type":"error","name":"AccessControlUnauthorizedAccount","inputs":[{"name":"account","type":"address","internalType":"address"},{"name":"neededRole","type":"bytes32","internalType":"bytes32"}]}],"bytecode":{"object":"0x608060405234801562000010575f80fd5b506200001d5f3362000051565b506200004a7f7613a25ecc738585a232ad50a301178f12b3ba8887d13e138b523c4269c476893362000051565b50620000fd565b5f828152602081815260408083206001600160a01b038516845290915281205460ff16620000f4575f838152602081815260408083206001600160a01b03861684529091529020805460ff19166001179055620000ab3390565b6001600160a01b0316826001600160a01b0316847f2f8788117e7eff1d82e926ec794901d17c78024a50270940304540a733656f0d60405160405180910390a4506001620000f7565b505f5b92915050565b611bc9806200010b5f395ff3fe608060405234801561000f575f80fd5b506004361061013c575f3560e01c80639c32c447116100b4578063cf51b45d11610079578063cf51b45d1461029f578063d14d5e53146102b2578063d547741f146102c5578063e3a96cbd146102d8578063e7705db6146102f8578063f99de2971461030c575f80fd5b80639c32c4471461024a578063a217fddf1461025d578063a8abe35e14610264578063af8d155514610277578063ca2dfd0a1461028c575f80fd5b806329f2c2d61161010557806329f2c2d6146101e25780632f2ff15d146101ea57806336568abe146101fd5780634460bdd614610210578063770d6bc11461022457806391d1485414610237575f80fd5b80626d98011461014057806301ffc9a714610155578063059ce95d1461017d5780631dd9997f1461019d578063248a9ca3146101b2575b5f80fd5b61015361014e36600461157b565b61031f565b005b61016861016336600461159b565b61042d565b60405190151581526020015b60405180910390f35b61019061018b36600461157b565b610463565b6040516101749190611605565b6101a56106e8565b604051610174919061169c565b6101d46101c03660046116df565b5f9081526020819052604090206001015490565b604051908152602001610174565b6101a561073e565b6101536101f83660046116f6565b610885565b61015361020b3660046116f6565b6108af565b6101d45f80516020611b5483398151915281565b61016861023236600461157b565b6108e7565b6101686102453660046116f6565b610927565b6101d46102583660046117bd565b61094f565b6101d45f81565b61015361027236600461157b565b610b25565b61027f610c20565b6040516101749190611801565b61015361029a36600461157b565b610c7f565b6101536102ad3660046117bd565b610d35565b6101536102c036600461157b565b610ecc565b6101536102d33660046116f6565b610f45565b6102eb6102e63660046116df565b610f69565b6040516101749190611841565b6101d45f80516020611b7483398151915281565b61015361031a3660046118de565b6111a1565b5f80516020611b548339815191526103368161141e565b61034d5f80516020611b7483398151915283610927565b6103725760405162461bcd60e51b815260040161036990611971565b60405180910390fd5b6001600160a01b0382165f9081526001602052604090206004015460ff16156103ce5760405162461bcd60e51b815260206004820152600e60248201526d416c72656164792061637469766560901b6044820152606401610369565b6001600160a01b0382165f81815260016020818152604092839020600401805460ff191690921790915590514281527ff2ad2cbbde27b017254e42967b352b9c6dc7d72fde4b437adf333b4489e87d9d91015b60405180910390a25050565b5f6001600160e01b03198216637965db0b60e01b148061045d57506301ffc9a760e01b6001600160e01b03198316145b92915050565b6104aa6040518060e001604052805f6001600160a01b031681526020016060815260200160608152602001606081526020015f151581526020015f81526020015f81525090565b6104c15f80516020611b7483398151915283610927565b6104dd5760405162461bcd60e51b815260040161036990611971565b6001600160a01b038083165f90815260016020818152604092839020835160e081019094528054909416835290830180549293929184019161051e90611999565b80601f016020809104026020016040519081016040528092919081815260200182805461054a90611999565b80156105955780601f1061056c57610100808354040283529160200191610595565b820191905f5260205f20905b81548152906001019060200180831161057857829003601f168201915b505050505081526020016002820180546105ae90611999565b80601f01602080910402602001604051908101604052809291908181526020018280546105da90611999565b80156106255780601f106105fc57610100808354040283529160200191610625565b820191905f5260205f20905b81548152906001019060200180831161060857829003601f168201915b5050505050815260200160038201805461063e90611999565b80601f016020809104026020016040519081016040528092919081815260200182805461066a90611999565b80156106b55780601f1061068c576101008083540402835291602001916106b5565b820191905f5260205f20905b81548152906001019060200180831161069857829003601f168201915b5050509183525050600482015460ff16151560208201526005820154604082015260069091015460609091015292915050565b6060600480548060200260200160405190810160405280929190818152602001828054801561073457602002820191905f5260205f20905b815481526020019060010190808311610720575b5050505050905090565b60605f805b60045481101561079e5760025f60048381548110610763576107636119d1565b5f918252602080832090910154835282019290925260400190206004015460ff166107965781610792816119e5565b9250505b600101610743565b505f8167ffffffffffffffff8111156107b9576107b9611720565b6040519080825280602002602001820160405280156107e2578160200160208202803683370190505b5090505f805b60045481101561087c5760025f60048381548110610808576108086119d1565b5f918252602080832090910154835282019290925260400190206004015460ff166108745760048181548110610840576108406119d1565b905f5260205f20015483838151811061085b5761085b6119d1565b602090810291909101015281610870816119e5565b9250505b6001016107e8565b50909392505050565b5f8281526020819052604090206001015461089f8161141e565b6108a9838361142b565b50505050565b6001600160a01b03811633146108d85760405163334bd91960e11b815260040160405180910390fd5b6108e282826114ba565b505050565b5f6108ff5f80516020611b7483398151915283610927565b801561045d5750506001600160a01b03165f9081526001602052604090206004015460ff1690565b5f918252602082815260408084206001600160a01b0393909316845291905290205460ff1690565b5f808251116109995760405162461bcd60e51b8152602060048201526016602482015275526561736f6e2063616e6e6f7420626520656d70747960501b6044820152606401610369565b600580545f91826109a9836119e5565b9091555060408051610100810182528681523360208083019182528284018881524260608501525f6080850181905260a0850181905260c085018190528551808401875281815260e0860152868152600292839052949094208351815591516001830180546001600160a01b0319166001600160a01b03909216919091179055925193945090929091820190610a3f9082611a54565b5060608201516003820155608082015160048201805460a08501516001600160a01b031661010002610100600160a81b0319931515939093166001600160a81b03199091161791909117905560c0820151600582015560e08201516006820190610aa99082611a54565b5050600480546001810182555f919091527f8a35acfbc15ff81a39ae7d344fd709f28e8600b4aa8c65c6b64bfe7fe36bd19b01829055506040513390859083907f187cf2180cf205abb3a86a43c8a0e9e92ffdc0d1029d2982b525b335a50efe5190610b16908890611b14565b60405180910390a49392505050565b5f80516020611b54833981519152610b3c8161141e565b610b535f80516020611b7483398151915283610927565b610b6f5760405162461bcd60e51b815260040161036990611971565b6001600160a01b0382165f9081526001602052604090206004015460ff16610bcc5760405162461bcd60e51b815260206004820152601060248201526f416c726561647920696e61637469766560801b6044820152606401610369565b6001600160a01b0382165f8181526001602052604090819020600401805460ff19169055517f47b6880768d81aceb4d117bf2c468e755a81c06c5d2f75f0762c7ee0f695f4ee906104219042815260200190565b6060600380548060200260200160405190810160405280929190818152602001828054801561073457602002820191905f5260205f20905b81546001600160a01b03168152600190910190602001808311610c58575050505050905090565b5f80516020611b54833981519152610c968161141e565b610cad5f80516020611b7483398151915283610927565b610cc95760405162461bcd60e51b815260040161036990611971565b610ce05f80516020611b74833981519152836114ba565b506001600160a01b0382165f8181526001602052604090819020600401805460ff19169055517f577461bde9fd030eb8b2941145223af9676a2dfae0f7c7d2456d7be21573a118906104219042815260200190565b5f80516020611b74833981519152610d4c8161141e565b6005548310610d965760405162461bcd60e51b8152602060048201526016602482015275111a5cdc1d5d1948191bd95cc81b9bdd08195e1a5cdd60521b6044820152606401610369565b5f8381526002602052604090206004015460ff1615610df75760405162461bcd60e51b815260206004820152601860248201527f4469737075746520616c7265616479207265736f6c76656400000000000000006044820152606401610369565b5f825111610e475760405162461bcd60e51b815260206004820152601a60248201527f5265736f6c7574696f6e2063616e6e6f7420626520656d7074790000000000006044820152606401610369565b5f83815260026020526040902060048101805433610100026001600160a81b0319909116176001179055426005820155600601610e848382611a54565b50336001600160a01b0316837f7b71d2e00379bd165b2750d54298da2414376699827edca2bce2a096c491d2e984604051610ebf9190611b14565b60405180910390a3505050565b5f80516020611b74833981519152610ee38161141e565b610efa5f80516020611b7483398151915283610927565b610f165760405162461bcd60e51b815260040161036990611971565b6001600160a01b0382165f908152600160205260408120600601805491610f3c836119e5565b91905055505050565b5f82815260208190526040902060010154610f5f8161141e565b6108a983836114ba565b610fbf6040518061010001604052805f81526020015f6001600160a01b03168152602001606081526020015f81526020015f151581526020015f6001600160a01b031681526020015f8152602001606081525090565b60055482106110095760405162461bcd60e51b8152602060048201526016602482015275111a5cdc1d5d1948191bd95cc81b9bdd08195e1a5cdd60521b6044820152606401610369565b5f828152600260208181526040928390208351610100810185528154815260018201546001600160a01b0316928101929092529182018054919384019161104f90611999565b80601f016020809104026020016040519081016040528092919081815260200182805461107b90611999565b80156110c65780601f1061109d576101008083540402835291602001916110c6565b820191905f5260205f20905b8154815290600101906020018083116110a957829003601f168201915b505050918352505060038201546020820152600482015460ff81161515604083015261010090046001600160a01b031660608201526005820154608082015260068201805460a09092019161111a90611999565b80601f016020809104026020016040519081016040528092919081815260200182805461114690611999565b80156111915780601f1061116857610100808354040283529160200191611191565b820191905f5260205f20905b81548152906001019060200180831161117457829003601f168201915b5050505050815250509050919050565b5f80516020611b548339815191526111b88161141e565b6001600160a01b0385166112005760405162461bcd60e51b815260206004820152600f60248201526e496e76616c6964206164647265737360881b6044820152606401610369565b6112175f80516020611b7483398151915286610927565b156112595760405162461bcd60e51b815260206004820152601260248201527120b63932b0b23c9030903b32b934b334b2b960711b6044820152606401610369565b5f8451116112a05760405162461bcd60e51b81526020600482015260146024820152734e616d652063616e6e6f7420626520656d70747960601b6044820152606401610369565b6040805160e0810182526001600160a01b038781168083526020808401898152848601899052606085018890526001608086018190524260a08701525f60c087018190529384529182905294909120835181546001600160a01b0319169316929092178255925191929091908201906113199082611a54565b506040820151600282019061132e9082611a54565b50606082015160038201906113439082611a54565b50608082015160048201805460ff191691151591909117905560a0820151600582015560c090910151600690910155600380546001810182555f919091527fc2575a0e9e593c00f959f8c92f12db2869c3395a3b0502d05e2516446f71f85b0180546001600160a01b0319166001600160a01b0387161790556113d35f80516020611b748339815191528661142b565b50846001600160a01b03167f036221ad1fea0abf926934dfcc44e9de63d3e629faeb0a4fe6930afb0c320fbd858460405161140f929190611b26565b60405180910390a25050505050565b6114288133611523565b50565b5f6114368383610927565b6114b3575f838152602081815260408083206001600160a01b03861684529091529020805460ff1916600117905561146b3390565b6001600160a01b0316826001600160a01b0316847f2f8788117e7eff1d82e926ec794901d17c78024a50270940304540a733656f0d60405160405180910390a450600161045d565b505f61045d565b5f6114c58383610927565b156114b3575f838152602081815260408083206001600160a01b0386168085529252808320805460ff1916905551339286917ff6391f5c32d9c69d2a47ea670b442974b53935d1edc7fd64eb21e047a839171b9190a450600161045d565b61152d8282610927565b61155c5760405163e2517d3f60e01b81526001600160a01b038216600482015260248101839052604401610369565b5050565b80356001600160a01b0381168114611576575f80fd5b919050565b5f6020828403121561158b575f80fd5b61159482611560565b9392505050565b5f602082840312156115ab575f80fd5b81356001600160e01b031981168114611594575f80fd5b5f81518084525f5b818110156115e6576020818501810151868301820152016115ca565b505f602082860101526020601f19601f83011685010191505092915050565b602080825282516001600160a01b03168282015282015160e060408301525f906116336101008401826115c2565b90506040840151601f198085840301606086015261165183836115c2565b925060608601519150808584030160808601525061166f82826115c2565b9150506080840151151560a084015260a084015160c084015260c084015160e08401528091505092915050565b602080825282518282018190525f9190848201906040850190845b818110156116d3578351835292840192918401916001016116b7565b50909695505050505050565b5f602082840312156116ef575f80fd5b5035919050565b5f8060408385031215611707575f80fd5b8235915061171760208401611560565b90509250929050565b634e487b7160e01b5f52604160045260245ffd5b5f82601f830112611743575f80fd5b813567ffffffffffffffff8082111561175e5761175e611720565b604051601f8301601f19908116603f0116810190828211818310171561178657611786611720565b8160405283815286602085880101111561179e575f80fd5b836020870160208301375f602085830101528094505050505092915050565b5f80604083850312156117ce575f80fd5b82359150602083013567ffffffffffffffff8111156117eb575f80fd5b6117f785828601611734565b9150509250929050565b602080825282518282018190525f9190848201906040850190845b818110156116d35783516001600160a01b03168352928401929184019160010161181c565b602081528151602082015260018060a01b0360208301511660408201525f604083015161010080606085015261187b6101208501836115c2565b915060608501516080850152608085015161189a60a086018215159052565b5060a08501516001600160a01b03811660c08601525060c085015160e085015260e0850151601f1985840301828601526118d483826115c2565b9695505050505050565b5f805f80608085870312156118f1575f80fd5b6118fa85611560565b9350602085013567ffffffffffffffff80821115611916575f80fd5b61192288838901611734565b94506040870135915080821115611937575f80fd5b61194388838901611734565b93506060870135915080821115611958575f80fd5b5061196587828801611734565b91505092959194509250565b6020808252600e908201526d2737ba1030903b32b934b334b2b960911b604082015260600190565b600181811c908216806119ad57607f821691505b6020821081036119cb57634e487b7160e01b5f52602260045260245ffd5b50919050565b634e487b7160e01b5f52603260045260245ffd5b5f60018201611a0257634e487b7160e01b5f52601160045260245ffd5b5060010190565b601f8211156108e257805f5260205f20601f840160051c81016020851015611a2e5750805b601f840160051c820191505b81811015611a4d575f8155600101611a3a565b5050505050565b815167ffffffffffffffff811115611a6e57611a6e611720565b611a8281611a7c8454611999565b84611a09565b602080601f831160018114611ab5575f8415611a9e5750858301515b5f19600386901b1c1916600185901b178555611b0c565b5f85815260208120601f198616915b82811015611ae357888601518255948401946001909101908401611ac4565b5085821015611b0057878501515f19600388901b60f8161c191681555b505060018460011b0185555b505050505050565b602081525f61159460208301846115c2565b604081525f611b3860408301856115c2565b8281036020840152611b4a81856115c2565b9594505050505056fe7613a25ecc738585a232ad50a301178f12b3ba8887d13e138b523c4269c476890ce23c3e399818cfee81a7ab0880f714e53d7672b08df0fa62f2843416e1ea09a2646970667358221220331a750bdd4da8e8c3a39be47e601c41eeff3761858cdecce4381a1e42a6b51c64736f6c63430008180033","linkReferences":{}},"methodIdentifiers":{"DEFAULT_ADMIN_ROLE()":"a217fddf","SUPER_ADMIN_ROLE()":"4460bdd6","VERIFIER_ROLE()":"e7705db6","addVerifier(address,string,string,string)":"f99de297","createDispute(uint256,string)":"9c32c447","deactivateVerifier(address)":"a8abe35e","getAllDisputes()":"1dd9997f","getAllVerifiers()":"af8d1555","getDispute(uint256)":"e3a96cbd","getPendingDisputes()":"29f2c2d6","getRoleAdmin(bytes32)":"248a9ca3","getVerifier(address)":"059ce95d","grantRole(bytes32,address)":"2f2ff15d","hasRole(bytes32,address)":"91d14854","incrementVerificationCount(address)":"d14d5e53","isActiveVerifier(address)":"770d6bc1","reactivateVerifier(address)":"006d9801","removeVerifier(address)":"ca2dfd0a","renounceRole(bytes32,address)":"36568abe","resolveDispute(uint256,string)":"cf51b45d","revokeRole(bytes32,address)":"d547741f","supportsInterface(bytes4)":"01ffc9a7"},"id":44}