{"abi":[{"type":"constructor","inputs":[],"stateMutability":"nonpayable"},{"type":"function","name":"ADMIN_ROLE","inputs":[],"outputs":[{"name":"","type":"bytes32","internalType":"bytes32"}],"stateMutability":"view"},{"type":"function","name":"DEFAULT_ADMIN_ROLE","inputs":[],"outputs":[{"name":"","type":"bytes32","internalType":"bytes32"}],"stateMutability":"view"},{"type":"function","name":"REQUIRED_VERIFICATIONS","inputs":[],"outputs":[{"name":"","type":"uint256","internalType":"uint256"}],"stateMutability":"view"},{"type":"function","name":"VERIFIER_ROLE","inputs":[],"outputs":[{"name":"","type":"bytes32","internalType":"bytes32"}],"stateMutability":"view"},{"type":"function","name":"approve","inputs":[{"name":"to","type":"address","internalType":"address"},{"name":"tokenId","type":"uint256","internalType":"uint256"}],"outputs":[],"stateMutability":"nonpayable"},{"type":"function","name":"balanceOf","inputs":[{"name":"owner","type":"address","internalType":"address"}],"outputs":[{"name":"","type":"uint256","internalType":"uint256"}],"stateMutability":"view"},{"type":"function","name":"getApproved","inputs":[{"name":"tokenId","type":"uint256","internalType":"uint256"}],"outputs":[{"name":"","type":"address","internalType":"address"}],"stateMutability":"view"},{"type":"function","name":"getLandDetails","inputs":[{"name":"tokenId","type":"uint256","internalType":"uint256"}],"outputs":[{"name":"","type":"tuple","internalType":"struct LandRegistry.LandMetadata","components":[{"name":"propertyId","type":"string","internalType":"string"},{"name":"ipfsHash","type":"string","internalType":"string"},{"name":"area","type":"uint256","internalType":"uint256"},{"name":"price","type":"uint256","internalType":"uint256"},{"name":"location","type":"string","internalType":"string"},{"name":"currentOwner","type":"address","internalType":"address"},{"name":"status","type":"uint8","internalType":"enum LandRegistry.VerificationStatus"},{"name":"registeredAt","type":"uint256","internalType":"uint256"},{"name":"verifiedAt","type":"uint256","internalType":"uint256"},{"name":"verifiedBy","type":"address","internalType":"address"}]}],"stateMutability":"view"},{"type":"function","name":"getOwnerLands","inputs":[{"name":"owner","type":"address","internalType":"address"}],"outputs":[{"name":"","type":"uint256[]","internalType":"uint256[]"}],"stateMutability":"view"},{"type":"function","name":"getRoleAdmin","inputs":[{"name":"role","type":"bytes32","internalType":"bytes32"}],"outputs":[{"name":"","type":"bytes32","internalType":"bytes32"}],"stateMutability":"view"},{"type":"function","name":"getTotalLands","inputs":[],"outputs":[{"name":"","type":"uint256","internalType":"uint256"}],"stateMutability":"view"},{"type":"function","name":"getVerificationCount","inputs":[{"name":"tokenId","type":"uint256","internalType":"uint256"}],"outputs":[{"name":"","type":"uint256","internalType":"uint256"}],"stateMutability":"view"},{"type":"function","name":"grantRole","inputs":[{"name":"role","type":"bytes32","internalType":"bytes32"},{"name":"account","type":"address","internalType":"address"}],"outputs":[],"stateMutability":"nonpayable"},{"type":"function","name":"hasRole","inputs":[{"name":"role","type":"bytes32","internalType":"bytes32"},{"name":"account","type":"address","internalType":"address"}],"outputs":[{"name":"","type":"bool","internalType":"bool"}],"stateMutability":"view"},{"type":"function","name":"isApprovedForAll","inputs":[{"name":"owner","type":"address","internalType":"address"},{"name":"operator","type":"address","internalType":"address"}],"outputs":[{"name":"","type":"bool","internalType":"bool"}],"stateMutability":"view"},{"type":"function","name":"name","inputs":[],"outputs":[{"name":"","type":"string","internalType":"string"}],"stateMutability":"view"},{"type":"function","name":"ownerOf","inputs":[{"name":"tokenId","type":"uint256","internalType":"uint256"}],"outputs":[{"name":"","type":"address","internalType":"address"}],"stateMutability":"view"},{"type":"function","name":"registerLand","inputs":[{"name":"propertyId","type":"string","internalType":"string"},{"name":"ipfsHash","type":"string","internalType":"string"},{"name":"area","type":"uint256","internalType":"uint256"},{"name":"price","type":"uint256","internalType":"uint256"},{"name":"location","type":"string","internalType":"string"}],"outputs":[{"name":"","type":"uint256","internalType":"uint256"}],"stateMutability":"nonpayable"},{"type":"function","name":"rejectLand","inputs":[{"name":"tokenId","type":"uint256","internalType":"uint256"},{"name":"reason","type":"string","internalType":"string"}],"outputs":[],"stateMutability":"nonpayable"},{"type":"function","name":"renounceRole","inputs":[{"name":"role","type":"bytes32","internalType":"bytes32"},{"name":"callerConfirmation","type":"address","internalType":"address"}],"outputs":[],"stateMutability":"nonpayable"},{"type":"function","name":"revokeRole","inputs":[{"name":"role","type":"bytes32","internalType":"bytes32"},{"name":"account","type":"address","internalType":"address"}],"outputs":[],"stateMutability":"nonpayable"},{"type":"function","name":"safeTransferFrom","inputs":[{"name":"from","type":"address","internalType":"address"},{"name":"to","type":"address","internalType":"address"},{"name":"tokenId","type":"uint256","internalType":"uint256"}],"outputs":[],"stateMutability":"nonpayable"},{"type":"function","name":"safeTransferFrom","inputs":[{"name":"from","type":"address","internalType":"address"},{"name":"to","type":"address","internalType":"address"},{"name":"tokenId","type":"uint256","internalType":"uint256"},{"name":"data","type":"bytes","internalType":"bytes"}],"outputs":[],"stateMutability":"nonpayable"},{"type":"function","name":"setApprovalForAll","inputs":[{"name":"operator","type":"address","internalType":"address"},{"name":"approved","type":"bool","internalType":"bool"}],"outputs":[],"stateMutability":"nonpayable"},{"type":"function","name":"supportsInterface","inputs":[{"name":"interfaceId","type":"bytes4","internalType":"bytes4"}],"outputs":[{"name":"","type":"bool","internalType":"bool"}],"stateMutability":"view"},{"type":"function","name":"symbol","inputs":[],"outputs":[{"name":"","type":"string","internalType":"string"}],"stateMutability":"view"},{"type":"function","name":"tokenURI","inputs":[{"name":"tokenId","type":"uint256","internalType":"uint256"}],"outputs":[{"name":"","type":"string","internalType":"string"}],"stateMutability":"view"},{"type":"function","name":"transferFrom","inputs":[{"name":"from","type":"address","internalType":"address"},{"name":"to","type":"address","internalType":"address"},{"name":"tokenId","type":"uint256","internalType":"uint256"}],"outputs":[],"stateMutability":"nonpayable"},{"type":"function","name":"transferLand","inputs":[{"name":"to","type":"address","internalType":"address"},{"name":"tokenId","type":"uint256","internalType":"uint256"}],"outputs":[],"stateMutability":"nonpayable"},{"type":"function","name":"updateMetadata","inputs":[{"name":"tokenId","type":"uint256","internalType":"uint256"},{"name":"newIpfsHash","type":"string","internalType":"string"}],"outputs":[],"stateMutability":"nonpayable"},{"type":"function","name":"verifyLand","inputs":[{"name":"tokenId","type":"uint256","internalType":"uint256"},{"name":"verifierAddress","type":"address","internalType":"address"}],"outputs":[],"stateMutability":"nonpayable"},{"type":"event","name":"Approval","inputs":[{"name":"owner","type":"address","indexed":true,"internalType":"address"},{"name":"approved","type":"address","indexed":true,"internalType":"address"},{"name":"tokenId","type":"uint256","indexed":true,"internalType":"uint256"}],"anonymous":false},{"type":"event","name":"ApprovalForAll","inputs":[{"name":"owner","type":"address","indexed":true,"internalType":"address"},{"name":"operator","type":"address","indexed":true,"internalType":"address"},{"name":"approved","type":"bool","indexed":false,"internalType":"bool"}],"anonymous":false},{"type":"event","name":"BatchMetadataUpdate","inputs":[{"name":"_fromTokenId","type":"uint256","indexed":false,"internalType":"uint256"},{"name":"_toTokenId","type":"uint256","indexed":false,"internalType":"uint256"}],"anonymous":false},{"type":"event","name":"LandRegistered","inputs":[{"name":"tokenId","type":"uint256","indexed":true,"internalType":"uint256"},{"name":"owner","type":"address","indexed":true,"internalType":"address"},{"name":"propertyId","type":"string","indexed":false,"internalType":"string"},{"name":"ipfsHash","type":"string","indexed":false,"internalType":"string"},{"name":"area","type":"uint256","indexed":false,"internalType":"uint256"},{"name":"price","type":"uint256","indexed":false,"internalType":"uint256"}],"anonymous":false},{"type":"event","name":"LandRejected","inputs":[{"name":"tokenId","type":"uint256","indexed":true,"internalType":"uint256"},{"name":"verifier","type":"address","indexed":true,"internalType":"address"},{"name":"reason","type":"string","indexed":false,"internalType":"string"}],"anonymous":false},{"type":"event","name":"LandTransferred","inputs":[{"name":"tokenId","type":"uint256","indexed":true,"internalType":"uint256"},{"name":"from","type":"address","indexed":true,"internalType":"address"},{"name":"to","type":"address","indexed":true,"internalType":"address"},{"name":"timestamp","type":"uint256","indexed":false,"internalType":"uint256"}],"anonymous":false},{"type":"event","name":"LandVerified","inputs":[{"name":"tokenId","type":"uint256","indexed":true,"internalType":"uint256"},{"name":"verifier","type":"address","indexed":true,"internalType":"address"},{"name":"timestamp","type":"uint256","indexed":false,"internalType":"uint256"}],"anonymous":false},{"type":"event","name":"MetadataUpdate","inputs":[{"name":"_tokenId","type":"uint256","indexed":false,"internalType":"uint256"}],"anonymous":false},{"type":"event","name":"MetadataUpdated","inputs":[{"name":"tokenId","type":"uint256","indexed":true,"internalType":"uint256"},{"name":"newIpfsHash","type":"string","indexed":false,"internalType":"string"}],"anonymous":false},{"type":"event","name":"RoleAdminChanged","inputs":[{"name":"role","type":"bytes32","indexed":true,"internalType":"bytes32"},{"name":"previousAdminRole","type":"bytes32","indexed":true,"internalType":"bytes32"},{"name":"newAdminRole","type":"bytes32","indexed":true,"internalType":"bytes32"}],"anonymous":false},{"type":"event","name":"RoleGranted","inputs":[{"name":"role","type":"bytes32","indexed":true,"internalType":"bytes32"},{"name":"account","type":"address","indexed":true,"internalType":"address"},{"name":"sender","type":"address","indexed":true,"internalType":"address"}],"anonymous":false},{"type":"event","name":"RoleRevoked","inputs":[{"name":"role","type":"bytes32","indexed":true,"internalType":"bytes32"},{"name":"account","type":"address","indexed":true,"internalType":"address"},{"name":"sender","type":"address","indexed":true,"internalType":"address"}],"anonymous":false},{"type":"event","name":"Transfer","inputs":[{"name":"from","type":"address","indexed":true,"internalType":"address"},{"name":"to","type":"address","indexed":true,"internalType":"address"},{"name":"tokenId","type":"uint256","indexed":true,"internalType":"uint256"}],"anonymous":false},{"type":"error","name":"AccessControlBadConfirmation","inputs":[]},{"type":"error","name":"AccessControlUnauthorizedAccount","inputs":[{"name":"account","type":"address","internalType":"address"},{"name":"neededRole","type":"bytes32","internalType":"bytes32"}]},{"type":"error","name":"ERC721IncorrectOwner","inputs":[{"name":"sender","type":"address","internalType":"address"},{"name":"tokenId","type":"uint256","internalType":"uint256"},{"name":"owner","type":"address","internalType":"address"}]},{"type":"error","name":"ERC721InsufficientApproval","inputs":[{"name":"operator","type":"address","internalType":"address"},{"name":"tokenId","type":"uint256","internalType":"uint256"}]},{"type":"error","name":"ERC721InvalidApprover","inputs":[{"name":"approver","type":"address","internalType":"address"}]},{"type":"error","name":"ERC721InvalidOperator","inputs":[{"name":"operator","type":"address","internalType":"address"}]},{"type":"error","name":"ERC721InvalidOwner","inputs":[{"name":"owner","type":"address","internalType":"address"}]},{"type":"error","name":"ERC721InvalidReceiver","inputs":[{"name":"receiver","type":"address","internalType":"address"}]},{"type":"error","name":"ERC721InvalidSender","inputs":[{"name":"sender","type":"address","internalType":"address"}]},{"type":"error","name":"ERC721NonexistentToken","inputs":[{"name":"tokenId","type":"uint256","internalType":"uint256"}]}],"bytecode":{"object":"0x608060405234801562000010575f80fd5b506040518060400160405280600c81526020016b4c616e64526567697374727960a01b815250604051806040016040528060048152602001631310539160e21b815250815f908162000063919062000232565b50600162000072828262000232565b506200008391505f905033620000e4565b50620000b07fa49807205ce4d355092ef5a8a18f56e8913cf4a201fbe287825b095693c2177533620000e4565b50620000dd7f0ce23c3e399818cfee81a7ab0880f714e53d7672b08df0fa62f2843416e1ea0933620000e4565b50620002fe565b5f8281526007602090815260408083206001600160a01b038516845290915281205460ff166200018b575f8381526007602090815260408083206001600160a01b03861684529091529020805460ff19166001179055620001423390565b6001600160a01b0316826001600160a01b0316847f2f8788117e7eff1d82e926ec794901d17c78024a50270940304540a733656f0d60405160405180910390a45060016200018e565b505f5b92915050565b634e487b7160e01b5f52604160045260245ffd5b600181811c90821680620001bd57607f821691505b602082108103620001dc57634e487b7160e01b5f52602260045260245ffd5b50919050565b601f8211156200022d57805f5260205f20601f840160051c81016020851015620002095750805b601f840160051c820191505b818110156200022a575f815560010162000215565b50505b505050565b81516001600160401b038111156200024e576200024e62000194565b62000266816200025f8454620001a8565b84620001e2565b602080601f8311600181146200029c575f8415620002845750858301515b5f19600386901b1c1916600185901b178555620002f6565b5f85815260208120601f198616915b82811015620002cc57888601518255948401946001909101908401620002ab565b5085821015620002ea57878501515f19600388901b60f8161c191681555b505060018460011b0185555b505050505050565b612950806200030c5f395ff3fe608060405234801561000f575f80fd5b50600436106101dc575f3560e01c806375b238fc11610109578063bf5172d71161009e578063e7705db61161006e578063e7705db614610423578063e985e9c51461044a578063fa3a38481461045d578063fe0cb7dc1461047c575f80fd5b8063bf5172d7146103ca578063c87b56dd146103ea578063ca4e2979146103fd578063d547741f14610410575f80fd5b8063a217fddf116100d9578063a217fddf1461038a578063a22cb46514610391578063b3f40d6a146103a4578063b88d4fde146103b7575f80fd5b806375b238fc14610340578063842e7dba1461036757806391d148541461036f57806395d89b4114610382575f80fd5b806336568abe1161017f57806353c8388e1161014f57806353c8388e146102f457806359122393146103075780636352211e1461031a57806370a082311461032d575f80fd5b806336568abe146102b357806342842e0e146102c65780634bc4ab65146102d95780634f7bd538146102ec575f80fd5b8063095ea7b3116101ba578063095ea7b31461024857806323b872dd1461025d578063248a9ca3146102705780632f2ff15d146102a0575f80fd5b806301ffc9a7146101e057806306fdde0314610208578063081812fc1461021d575b5f80fd5b6101f36101ee366004612184565b61049c565b60405190151581526020015b60405180910390f35b6102106104ac565b6040516101ff91906121ec565b61023061022b3660046121fe565b61053b565b6040516001600160a01b0390911681526020016101ff565b61025b610256366004612230565b610562565b005b61025b61026b366004612258565b610571565b61029261027e3660046121fe565b5f9081526007602052604090206001015490565b6040519081526020016101ff565b61025b6102ae366004612291565b6105ff565b61025b6102c1366004612291565b610623565b61025b6102d4366004612258565b61065b565b6102926102e7366004612360565b610675565b610292600381565b61025b6103023660046123f5565b6109d4565b61025b6103153660046123f5565b610b14565b6102306103283660046121fe565b610c50565b61029261033b366004612439565b610c5a565b6102927fa49807205ce4d355092ef5a8a18f56e8913cf4a201fbe287825b095693c2177581565b600854610292565b6101f361037d366004612291565b610c9f565b610210610cc9565b6102925f81565b61025b61039f366004612452565b610cd8565b61025b6103b2366004612230565b610ce3565b61025b6103c536600461248b565b610e80565b6103dd6103d8366004612439565b610e98565b6040516101ff9190612502565b6102106103f83660046121fe565b610f01565b61025b61040b366004612291565b610f82565b61025b61041e366004612291565b6112ab565b6102927f0ce23c3e399818cfee81a7ab0880f714e53d7672b08df0fa62f2843416e1ea0981565b6101f3610458366004612545565b6112cf565b61029261046b3660046121fe565b5f908152600c602052604090205490565b61048f61048a3660046121fe565b6112fc565b6040516101ff91906125a1565b5f6104a68261158c565b92915050565b60605f80546104ba90612676565b80601f01602080910402602001604051908101604052809291908181526020018280546104e690612676565b80156105315780601f1061050857610100808354040283529160200191610531565b820191905f5260205f20905b81548152906001019060200180831161051457829003601f168201915b5050505050905090565b5f610545826115b0565b505f828152600460205260409020546001600160a01b03166104a6565b61056d8282336115e8565b5050565b6001600160a01b03821661059f57604051633250574960e11b81525f60048201526024015b60405180910390fd5b5f6105ab8383336115f5565b9050836001600160a01b0316816001600160a01b0316146105f9576040516364283d7b60e01b81526001600160a01b0380861660048301526024820184905282166044820152606401610596565b50505050565b5f82815260076020526040902060010154610619816116e7565b6105f983836116f4565b6001600160a01b038116331461064c5760405163334bd91960e11b815260040160405180910390fd5b6106568282611785565b505050565b61065683838360405180602001604052805f815250610e80565b5f8551600e146106d95760405162461bcd60e51b815260206004820152602960248201527f50726f7065727479204944206d7573742062652065786163746c79203134206360448201526868617261637465727360b81b6064820152608401610596565b600a866040516106e991906126ae565b9081526040519081900360200190205460ff16156107535760405162461bcd60e51b815260206004820152602160248201527f50726f706572747920494420697320616c7265616479207265676973746572656044820152601960fa1b6064820152608401610596565b5f85511161079f5760405162461bcd60e51b81526020600482015260196024820152784950465320686173682063616e6e6f7420626520656d70747960381b6044820152606401610596565b5f84116107ee5760405162461bcd60e51b815260206004820152601b60248201527f41726561206d7573742062652067726561746572207468616e203000000000006044820152606401610596565b600880545f91826107fe836126dd565b9190505590506001600a8860405161081691906126ae565b9081526040805160209281900383018120805460ff19169415159490941790935561014083018152898352908201889052810186905260608101859052608081018490523360a082015260c081015f8152426020808301919091525f60408084018290526060909301819052848152600990915220815181906108999082612739565b50602082015160018201906108ae9082612739565b506040820151600282015560608201516003820155608082015160048201906108d79082612739565b5060a08201516005820180546001600160a01b039092166001600160a01b031983168117825560c0850151926001600160a81b03191617600160a01b8360028111156109255761092561256d565b021790555060e08201516006820155610100820151600782015561012090910151600890910180546001600160a01b0319166001600160a01b03909216919091179055335f818152600b60209081526040808320805460018101825590845291909220018390555182907f6cd73b147901f68c71afbecf25b84fc40442a7b4ec294749a6782b602ce34fd3906109c2908b908b908b908b906127f5565b60405180910390a39695505050505050565b5f828152600960205260409020600501546001600160a01b03163314610a345760405162461bcd60e51b81526020600482015260156024820152742cb7ba9030b932903737ba103a34329037bbb732b960591b6044820152606401610596565b5f815111610a805760405162461bcd60e51b81526020600482015260196024820152784950465320686173682063616e6e6f7420626520656d70747960381b6044820152606401610596565b5f828152600960205260409020600101610a9a8282612739565b5060015f83815260096020526040902060050154600160a01b900460ff166002811115610ac957610ac961256d565b03610ad857610ad882826117f0565b817f459157ba24c7ab9878b165ef465fa6ae2ab42bcd8445f576be378768b0c4730982604051610b0891906121ec565b60405180910390a25050565b7f0ce23c3e399818cfee81a7ab0880f714e53d7672b08df0fa62f2843416e1ea09610b3e816116e7565b5f838152600960205260409020600501546001600160a01b0316610b745760405162461bcd60e51b81526004016105969061282d565b5f8084815260096020526040902060050154600160a01b900460ff166002811115610ba157610ba161256d565b14610bee5760405162461bcd60e51b815260206004820181905260248201527f4c616e64206973206e6f742070656e64696e6720766572696669636174696f6e6044820152606401610596565b5f8381526009602052604090819020600501805460ff60a01b1916600160a11b17905551339084907f0bfb28b3bcbf7f14c446dcbef3400fd577659d1d8ce6f5a077d6ab8a2994613490610c439086906121ec565b60405180910390a3505050565b5f6104a6826115b0565b5f6001600160a01b038216610c84576040516322718ad960e21b81525f6004820152602401610596565b506001600160a01b03165f9081526003602052604090205490565b5f9182526007602090815260408084206001600160a01b0393909316845291905290205460ff1690565b6060600180546104ba90612676565b61056d33838361183f565b5f818152600960205260409020600501546001600160a01b03163314610d435760405162461bcd60e51b81526020600482015260156024820152742cb7ba9030b932903737ba103a34329037bbb732b960591b6044820152606401610596565b60015f82815260096020526040902060050154600160a01b900460ff166002811115610d7157610d7161256d565b14610dcd5760405162461bcd60e51b815260206004820152602660248201527f4f6e6c79207665726966696564206c616e64732063616e206265207472616e7360448201526519995c9c995960d21b6064820152608401610596565b33610dd881836118fe565b6001600160a01b0383165f818152600b602090815260408083208054600181018255908452828420018690558583526009909152902060050180546001600160a01b0319169091179055610e2d8184846119b8565b826001600160a01b0316816001600160a01b0316837f20b4587b96d546fb8dda06f8a11cc80fd5debab09bf4795380734af50f3d259c42604051610e7391815260200190565b60405180910390a4505050565b610e8b848484610571565b6105f93385858585611a65565b6001600160a01b0381165f908152600b6020908152604091829020805483518184028101840190945280845260609392830182828015610ef557602002820191905f5260205f20905b815481526020019060010190808311610ee1575b50505050509050919050565b6060610f0c826115b0565b505f610f2260408051602081019091525f815290565b90505f610f2e84611b8d565b905081515f03610f3f579392505050565b805115610f71578181604051602001610f5992919061285a565b60405160208183030381529060405292505050919050565b610f7a84611c22565b949350505050565b7f0ce23c3e399818cfee81a7ab0880f714e53d7672b08df0fa62f2843416e1ea09610fac816116e7565b5f838152600960205260409020600501546001600160a01b0316610fe25760405162461bcd60e51b81526004016105969061282d565b5f8084815260096020526040902060050154600160a01b900460ff16600281111561100f5761100f61256d565b1461105c5760405162461bcd60e51b815260206004820181905260248201527f4c616e64206973206e6f742070656e64696e6720766572696669636174696f6e6044820152606401610596565b5f838152600d602090815260408083206001600160a01b038616845290915290205460ff16156110da5760405162461bcd60e51b815260206004820152602360248201527f596f75206861766520616c72656164792076657269666965642074686973206c604482015262185b9960ea1b6064820152608401610596565b5f838152600d602090815260408083206001600160a01b03861684528252808320805460ff19166001179055858352600c909152812080549161111c836126dd565b90915550505f838152600c60205260409020546002190161127b575f8381526009602052604090206005015461115b906001600160a01b031684611c93565b5f83815260096020526040902060010180546111fd91859161117c90612676565b80601f01602080910402602001604051908101604052809291908181526020018280546111a890612676565b80156111f35780601f106111ca576101008083540402835291602001916111f3565b820191905f5260205f20905b8154815290600101906020018083116111d657829003601f168201915b50505050506117f0565b5f8381526009602090815260409182902060058101805460ff60a01b1916600160a01b1790554260078201819055600890910180546001600160a01b0319166001600160a01b038716908117909155925190815285917f3a50d62f47e18d9f4e9816e3ff154bcc0d81d99bec4e87565299b7c5d1a0a61b9101610c43565b5f83815260096020526040902060080180546001600160a01b0384166001600160a01b0319909116179055505050565b5f828152600760205260409020600101546112c5816116e7565b6105f98383611785565b6001600160a01b039182165f90815260056020908152604080832093909416825291909152205460ff1690565b611304612100565b5f828152600960205260409020600501546001600160a01b031661133a5760405162461bcd60e51b81526004016105969061282d565b5f82815260096020526040908190208151610140810190925280548290829061136290612676565b80601f016020809104026020016040519081016040528092919081815260200182805461138e90612676565b80156113d95780601f106113b0576101008083540402835291602001916113d9565b820191905f5260205f20905b8154815290600101906020018083116113bc57829003601f168201915b505050505081526020016001820180546113f290612676565b80601f016020809104026020016040519081016040528092919081815260200182805461141e90612676565b80156114695780601f1061144057610100808354040283529160200191611469565b820191905f5260205f20905b81548152906001019060200180831161144c57829003601f168201915b50505050508152602001600282015481526020016003820154815260200160048201805461149690612676565b80601f01602080910402602001604051908101604052809291908181526020018280546114c290612676565b801561150d5780601f106114e45761010080835404028352916020019161150d565b820191905f5260205f20905b8154815290600101906020018083116114f057829003601f168201915b505050918352505060058201546001600160a01b0381166020830152604090910190600160a01b900460ff16600281111561154a5761154a61256d565b600281111561155b5761155b61256d565b815260068201546020820152600782015460408201526008909101546001600160a01b031660609091015292915050565b5f6001600160e01b03198216637965db0b60e01b14806104a657506104a682611cac565b5f818152600260205260408120546001600160a01b0316806104a657604051637e27328960e01b815260048101849052602401610596565b6106568383836001611cd0565b5f828152600260205260408120546001600160a01b039081169083161561162157611621818486611dd4565b6001600160a01b0381161561165b5761163c5f855f80611cd0565b6001600160a01b0381165f90815260036020526040902080545f190190555b6001600160a01b03851615611689576001600160a01b0385165f908152600360205260409020805460010190555b5f8481526002602052604080822080546001600160a01b0319166001600160a01b0389811691821790925591518793918516917fddf252ad1be2c89b69c2b068fc378daa952ba7f163c4a11628f55a4df523b3ef91a4949350505050565b6116f18133611e38565b50565b5f6116ff8383610c9f565b61177e575f8381526007602090815260408083206001600160a01b03861684529091529020805460ff191660011790556117363390565b6001600160a01b0316826001600160a01b0316847f2f8788117e7eff1d82e926ec794901d17c78024a50270940304540a733656f0d60405160405180910390a45060016104a6565b505f6104a6565b5f6117908383610c9f565b1561177e575f8381526007602090815260408083206001600160a01b0386168085529252808320805460ff1916905551339286917ff6391f5c32d9c69d2a47ea670b442974b53935d1edc7fd64eb21e047a839171b9190a45060016104a6565b5f8281526006602052604090206118078282612739565b506040518281527ff8e1a15aba9398e019f0b49df1a4fde98ee17ae345cb5f6b5e2c27f5033e8ce79060200160405180910390a15050565b6001600160a01b0383166118685760405163a9fbf51f60e01b81525f6004820152602401610596565b6001600160a01b03821661189a57604051630b61174360e31b81526001600160a01b0383166004820152602401610596565b6001600160a01b038381165f81815260056020908152604080832094871680845294825291829020805460ff191686151590811790915591519182527f17307eab39ab6107e8899845ad3d59bd9653f200f220920489ca2b5937696c319101610c43565b6001600160a01b0382165f908152600b60205260408120905b81548110156105f9578282828154811061193357611933612888565b905f5260205f200154036119b057815482906119519060019061289c565b8154811061196157611961612888565b905f5260205f20015482828154811061197c5761197c612888565b905f5260205f20018190555081805480611998576119986128af565b600190038181905f5260205f20015f905590556105f9565b600101611917565b6001600160a01b0382166119e157604051633250574960e11b81525f6004820152602401610596565b5f6119ed83835f6115f5565b90506001600160a01b038116611a1957604051637e27328960e01b815260048101839052602401610596565b836001600160a01b0316816001600160a01b0316146105f9576040516364283d7b60e01b81526001600160a01b0380861660048301526024820184905282166044820152606401610596565b6001600160a01b0383163b15611b8657604051630a85bd0160e11b81526001600160a01b0384169063150b7a0290611aa79088908890879087906004016128c3565b6020604051808303815f875af1925050508015611ae1575060408051601f3d908101601f19168201909252611ade918101906128ff565b60015b611b48573d808015611b0e576040519150601f19603f3d011682016040523d82523d5f602084013e611b13565b606091505b5080515f03611b4057604051633250574960e11b81526001600160a01b0385166004820152602401610596565b805160208201fd5b6001600160e01b03198116630a85bd0160e11b14611b8457604051633250574960e11b81526001600160a01b0385166004820152602401610596565b505b5050505050565b5f818152600660205260409020805460609190611ba990612676565b80601f0160208091040260200160405190810160405280929190818152602001828054611bd590612676565b8015610ef55780601f10611bf757610100808354040283529160200191610ef5565b820191905f5260205f20905b815481529060010190602001808311611c035750939695505050505050565b6060611c2d826115b0565b505f611c4360408051602081019091525f815290565b90505f815111611c615760405180602001604052805f815250611c8c565b80611c6b84611e71565b604051602001611c7c92919061285a565b6040516020818303038152906040525b9392505050565b61056d828260405180602001604052805f815250611f01565b5f6001600160e01b03198216632483248360e11b14806104a657506104a682611f18565b8080611ce457506001600160a01b03821615155b15611da5575f611cf3846115b0565b90506001600160a01b03831615801590611d1f5750826001600160a01b0316816001600160a01b031614155b8015611d325750611d3081846112cf565b155b15611d5b5760405163a9fbf51f60e01b81526001600160a01b0384166004820152602401610596565b8115611da35783856001600160a01b0316826001600160a01b03167f8c5be1e5ebec7d5bd14f71427d1e84f3dd0314c0f7b2291e5b200ac8c7c3b92560405160405180910390a45b505b50505f90815260046020526040902080546001600160a01b0319166001600160a01b0392909216919091179055565b611ddf838383611f67565b610656576001600160a01b038316611e0d57604051637e27328960e01b815260048101829052602401610596565b60405163177e802f60e01b81526001600160a01b038316600482015260248101829052604401610596565b611e428282610c9f565b61056d5760405163e2517d3f60e01b81526001600160a01b038216600482015260248101839052604401610596565b60605f611e7d83611fc8565b60010190505f8167ffffffffffffffff811115611e9c57611e9c6122bb565b6040519080825280601f01601f191660200182016040528015611ec6576020820181803683370190505b5090508181016020015b5f19016f181899199a1a9b1b9c1cb0b131b232b360811b600a86061a8153600a8504945084611ed057509392505050565b611f0b838361209f565b610656335f858585611a65565b5f6001600160e01b031982166380ac58cd60e01b1480611f4857506001600160e01b03198216635b5e139f60e01b145b806104a657506301ffc9a760e01b6001600160e01b03198316146104a6565b5f6001600160a01b03831615801590610f7a5750826001600160a01b0316846001600160a01b03161480611fa05750611fa084846112cf565b80610f7a5750505f908152600460205260409020546001600160a01b03908116911614919050565b5f8072184f03e93ff9f4daa797ed6e38ed64bf6a1f0160401b83106120065772184f03e93ff9f4daa797ed6e38ed64bf6a1f0160401b830492506040015b6d04ee2d6d415b85acef81000000008310612032576d04ee2d6d415b85acef8100000000830492506020015b662386f26fc10000831061205057662386f26fc10000830492506010015b6305f5e1008310612068576305f5e100830492506008015b612710831061207c57612710830492506004015b6064831061208e576064830492506002015b600a83106104a65760010192915050565b6001600160a01b0382166120c857604051633250574960e11b81525f6004820152602401610596565b5f6120d483835f6115f5565b90506001600160a01b03811615610656576040516339e3563760e11b81525f6004820152602401610596565b60405180610140016040528060608152602001606081526020015f81526020015f8152602001606081526020015f6001600160a01b031681526020015f600281111561214e5761214e61256d565b81526020015f81526020015f81526020015f6001600160a01b031681525090565b6001600160e01b0319811681146116f1575f80fd5b5f60208284031215612194575f80fd5b8135611c8c8161216f565b5f5b838110156121b95781810151838201526020016121a1565b50505f910152565b5f81518084526121d881602086016020860161219f565b601f01601f19169290920160200192915050565b602081525f611c8c60208301846121c1565b5f6020828403121561220e575f80fd5b5035919050565b80356001600160a01b038116811461222b575f80fd5b919050565b5f8060408385031215612241575f80fd5b61224a83612215565b946020939093013593505050565b5f805f6060848603121561226a575f80fd5b61227384612215565b925061228160208501612215565b9150604084013590509250925092565b5f80604083850312156122a2575f80fd5b823591506122b260208401612215565b90509250929050565b634e487b7160e01b5f52604160045260245ffd5b5f67ffffffffffffffff808411156122e9576122e96122bb565b604051601f8501601f19908116603f01168101908282118183101715612311576123116122bb565b81604052809350858152868686011115612329575f80fd5b858560208301375f602087830101525050509392505050565b5f82601f830112612351575f80fd5b611c8c838335602085016122cf565b5f805f805f60a08688031215612374575f80fd5b853567ffffffffffffffff8082111561238b575f80fd5b61239789838a01612342565b965060208801359150808211156123ac575f80fd5b6123b889838a01612342565b9550604088013594506060880135935060808801359150808211156123db575f80fd5b506123e888828901612342565b9150509295509295909350565b5f8060408385031215612406575f80fd5b82359150602083013567ffffffffffffffff811115612423575f80fd5b61242f85828601612342565b9150509250929050565b5f60208284031215612449575f80fd5b611c8c82612215565b5f8060408385031215612463575f80fd5b61246c83612215565b915060208301358015158114612480575f80fd5b809150509250929050565b5f805f806080858703121561249e575f80fd5b6124a785612215565b93506124b560208601612215565b925060408501359150606085013567ffffffffffffffff8111156124d7575f80fd5b8501601f810187136124e7575f80fd5b6124f6878235602084016122cf565b91505092959194509250565b602080825282518282018190525f9190848201906040850190845b818110156125395783518352928401929184019160010161251d565b50909695505050505050565b5f8060408385031215612556575f80fd5b61255f83612215565b91506122b260208401612215565b634e487b7160e01b5f52602160045260245ffd5b6003811061259d57634e487b7160e01b5f52602160045260245ffd5b9052565b602081525f82516101408060208501526125bf6101608501836121c1565b91506020850151601f19808685030160408701526125dd84836121c1565b9350604087015160608701526060870151608087015260808701519150808685030160a08701525061260f83826121c1565b92505060a085015161262c60c08601826001600160a01b03169052565b5060c085015161263f60e0860182612581565b5060e08501516101008581019190915285015161012080860191909152909401516001600160a01b03169390920192909252919050565b600181811c9082168061268a57607f821691505b6020821081036126a857634e487b7160e01b5f52602260045260245ffd5b50919050565b5f82516126bf81846020870161219f565b9190910192915050565b634e487b7160e01b5f52601160045260245ffd5b5f600182016126ee576126ee6126c9565b5060010190565b601f82111561065657805f5260205f20601f840160051c8101602085101561271a5750805b601f840160051c820191505b81811015611b86575f8155600101612726565b815167ffffffffffffffff811115612753576127536122bb565b612767816127618454612676565b846126f5565b602080601f83116001811461279a575f84156127835750858301515b5f19600386901b1c1916600185901b178555611b84565b5f85815260208120601f198616915b828110156127c8578886015182559484019460019091019084016127a9565b50858210156127e557878501515f19600388901b60f8161c191681555b5050505050600190811b01905550565b608081525f61280760808301876121c1565b828103602084015261281981876121c1565b604084019590955250506060015292915050565b60208082526013908201527213185b9908191bd95cc81b9bdd08195e1a5cdd606a1b604082015260600190565b5f835161286b81846020880161219f565b83519083019061287f81836020880161219f565b01949350505050565b634e487b7160e01b5f52603260045260245ffd5b818103818111156104a6576104a66126c9565b634e487b7160e01b5f52603160045260245ffd5b6001600160a01b03858116825284166020820152604081018390526080606082018190525f906128f5908301846121c1565b9695505050505050565b5f6020828403121561290f575f80fd5b8151611c8c8161216f56fea2646970667358221220dcfaeea70f8e16f49e20a7107f5722346ccb405540fdb21be26ecf7a5e9334d464736f6c63430008180033","linkReferences":{}},"methodIdentifiers":{"ADMIN_ROLE()":"75b238fc","DEFAULT_ADMIN_ROLE()":"a217fddf","REQUIRED_VERIFICATIONS()":"4f7bd538","VERIFIER_ROLE()":"e7705db6","approve(address,uint256)":"095ea7b3","balanceOf(address)":"70a08231","getApproved(uint256)":"081812fc","getLandDetails(uint256)":"fe0cb7dc","getOwnerLands(address)":"bf5172d7","getRoleAdmin(bytes32)":"248a9ca3","getTotalLands()":"842e7dba","getVerificationCount(uint256)":"fa3a3848","grantRole(bytes32,address)":"2f2ff15d","hasRole(bytes32,address)":"91d14854","isApprovedForAll(address,address)":"e985e9c5","name()":"06fdde03","ownerOf(uint256)":"6352211e","registerLand(string,string,uint256,uint256,string)":"4bc4ab65","rejectLand(uint256,string)":"59122393","renounceRole(bytes32,address)":"36568abe","revokeRole(bytes32,address)":"d547741f","safeTransferFrom(address,address,uint256)":"42842e0e","safeTransferFrom(address,address,uint256,bytes)":"b88d4fde","setApprovalForAll(address,bool)":"a22cb465","supportsInterface(bytes4)":"01ffc9a7","symbol()":"95d89b41","tokenURI(uint256)":"c87b56dd","transferFrom(address,address,uint256)":"23b872dd","transferLand(address,uint256)":"b3f40d6a","updateMetadata(uint256,string)":"53c8388e","verifyLand(uint256,address)":"ca4e2979"},"id":40}