{"abi":[{"type":"constructor","inputs":[],"stateMutability":"nonpayable"},{"type":"function","name":"ADMIN_ROLE","inputs":[],"outputs":[{"name":"","type":"bytes32","internalType":"bytes32"}],"stateMutability":"view"},{"type":"function","name":"DEFAULT_ADMIN_ROLE","inputs":[],"outputs":[{"name":"","type":"bytes32","internalType":"bytes32"}],"stateMutability":"view"},{"type":"function","name":"VERIFIER_ROLE","inputs":[],"outputs":[{"name":"","type":"bytes32","internalType":"bytes32"}],"stateMutability":"view"},{"type":"function","name":"approve","inputs":[{"name":"to","type":"address","internalType":"address"},{"name":"tokenId","type":"uint256","internalType":"uint256"}],"outputs":[],"stateMutability":"nonpayable"},{"type":"function","name":"balanceOf","inputs":[{"name":"owner","type":"address","internalType":"address"}],"outputs":[{"name":"","type":"uint256","internalType":"uint256"}],"stateMutability":"view"},{"type":"function","name":"getApproved","inputs":[{"name":"tokenId","type":"uint256","internalType":"uint256"}],"outputs":[{"name":"","type":"address","internalType":"address"}],"stateMutability":"view"},{"type":"function","name":"getLandDetails","inputs":[{"name":"tokenId","type":"uint256","internalType":"uint256"}],"outputs":[{"name":"","type":"tuple","internalType":"struct LandRegistry.LandMetadata","components":[{"name":"ipfsHash","type":"string","internalType":"string"},{"name":"area","type":"uint256","internalType":"uint256"},{"name":"price","type":"uint256","internalType":"uint256"},{"name":"location","type":"string","internalType":"string"},{"name":"currentOwner","type":"address","internalType":"address"},{"name":"status","type":"uint8","internalType":"enum LandRegistry.VerificationStatus"},{"name":"registeredAt","type":"uint256","internalType":"uint256"},{"name":"verifiedAt","type":"uint256","internalType":"uint256"},{"name":"verifiedBy","type":"address","internalType":"address"}]}],"stateMutability":"view"},{"type":"function","name":"getOwnerLands","inputs":[{"name":"owner","type":"address","internalType":"address"}],"outputs":[{"name":"","type":"uint256[]","internalType":"uint256[]"}],"stateMutability":"view"},{"type":"function","name":"getRoleAdmin","inputs":[{"name":"role","type":"bytes32","internalType":"bytes32"}],"outputs":[{"name":"","type":"bytes32","internalType":"bytes32"}],"stateMutability":"view"},{"type":"function","name":"getTotalLands","inputs":[],"outputs":[{"name":"","type":"uint256","internalType":"uint256"}],"stateMutability":"view"},{"type":"function","name":"grantRole","inputs":[{"name":"role","type":"bytes32","internalType":"bytes32"},{"name":"account","type":"address","internalType":"address"}],"outputs":[],"stateMutability":"nonpayable"},{"type":"function","name":"hasRole","inputs":[{"name":"role","type":"bytes32","internalType":"bytes32"},{"name":"account","type":"address","internalType":"address"}],"outputs":[{"name":"","type":"bool","internalType":"bool"}],"stateMutability":"view"},{"type":"function","name":"isApprovedForAll","inputs":[{"name":"owner","type":"address","internalType":"address"},{"name":"operator","type":"address","internalType":"address"}],"outputs":[{"name":"","type":"bool","internalType":"bool"}],"stateMutability":"view"},{"type":"function","name":"name","inputs":[],"outputs":[{"name":"","type":"string","internalType":"string"}],"stateMutability":"view"},{"type":"function","name":"ownerOf","inputs":[{"name":"tokenId","type":"uint256","internalType":"uint256"}],"outputs":[{"name":"","type":"address","internalType":"address"}],"stateMutability":"view"},{"type":"function","name":"registerLand","inputs":[{"name":"ipfsHash","type":"string","internalType":"string"},{"name":"area","type":"uint256","internalType":"uint256"},{"name":"price","type":"uint256","internalType":"uint256"},{"name":"location","type":"string","internalType":"string"}],"outputs":[{"name":"","type":"uint256","internalType":"uint256"}],"stateMutability":"nonpayable"},{"type":"function","name":"rejectLand","inputs":[{"name":"tokenId","type":"uint256","internalType":"uint256"},{"name":"reason","type":"string","internalType":"string"}],"outputs":[],"stateMutability":"nonpayable"},{"type":"function","name":"renounceRole","inputs":[{"name":"role","type":"bytes32","internalType":"bytes32"},{"name":"callerConfirmation","type":"address","internalType":"address"}],"outputs":[],"stateMutability":"nonpayable"},{"type":"function","name":"revokeRole","inputs":[{"name":"role","type":"bytes32","internalType":"bytes32"},{"name":"account","type":"address","internalType":"address"}],"outputs":[],"stateMutability":"nonpayable"},{"type":"function","name":"safeTransferFrom","inputs":[{"name":"from","type":"address","internalType":"address"},{"name":"to","type":"address","internalType":"address"},{"name":"tokenId","type":"uint256","internalType":"uint256"}],"outputs":[],"stateMutability":"nonpayable"},{"type":"function","name":"safeTransferFrom","inputs":[{"name":"from","type":"address","internalType":"address"},{"name":"to","type":"address","internalType":"address"},{"name":"tokenId","type":"uint256","internalType":"uint256"},{"name":"data","type":"bytes","internalType":"bytes"}],"outputs":[],"stateMutability":"nonpayable"},{"type":"function","name":"setApprovalForAll","inputs":[{"name":"operator","type":"address","internalType":"address"},{"name":"approved","type":"bool","internalType":"bool"}],"outputs":[],"stateMutability":"nonpayable"},{"type":"function","name":"supportsInterface","inputs":[{"name":"interfaceId","type":"bytes4","internalType":"bytes4"}],"outputs":[{"name":"","type":"bool","internalType":"bool"}],"stateMutability":"view"},{"type":"function","name":"symbol","inputs":[],"outputs":[{"name":"","type":"string","internalType":"string"}],"stateMutability":"view"},{"type":"function","name":"tokenURI","inputs":[{"name":"tokenId","type":"uint256","internalType":"uint256"}],"outputs":[{"name":"","type":"string","internalType":"string"}],"stateMutability":"view"},{"type":"function","name":"transferFrom","inputs":[{"name":"from","type":"address","internalType":"address"},{"name":"to","type":"address","internalType":"address"},{"name":"tokenId","type":"uint256","internalType":"uint256"}],"outputs":[],"stateMutability":"nonpayable"},{"type":"function","name":"transferLand","inputs":[{"name":"to","type":"address","internalType":"address"},{"name":"tokenId","type":"uint256","internalType":"uint256"}],"outputs":[],"stateMutability":"nonpayable"},{"type":"function","name":"updateMetadata","inputs":[{"name":"tokenId","type":"uint256","internalType":"uint256"},{"name":"newIpfsHash","type":"string","internalType":"string"}],"outputs":[],"stateMutability":"nonpayable"},{"type":"function","name":"verifyLand","inputs":[{"name":"tokenId","type":"uint256","internalType":"uint256"}],"outputs":[],"stateMutability":"nonpayable"},{"type":"event","name":"Approval","inputs":[{"name":"owner","type":"address","indexed":true,"internalType":"address"},{"name":"approved","type":"address","indexed":true,"internalType":"address"},{"name":"tokenId","type":"uint256","indexed":true,"internalType":"uint256"}],"anonymous":false},{"type":"event","name":"ApprovalForAll","inputs":[{"name":"owner","type":"address","indexed":true,"internalType":"address"},{"name":"operator","type":"address","indexed":true,"internalType":"address"},{"name":"approved","type":"bool","indexed":false,"internalType":"bool"}],"anonymous":false},{"type":"event","name":"BatchMetadataUpdate","inputs":[{"name":"_fromTokenId","type":"uint256","indexed":false,"internalType":"uint256"},{"name":"_toTokenId","type":"uint256","indexed":false,"internalType":"uint256"}],"anonymous":false},{"type":"event","name":"LandRegistered","inputs":[{"name":"tokenId","type":"uint256","indexed":true,"internalType":"uint256"},{"name":"owner","type":"address","indexed":true,"internalType":"address"},{"name":"ipfsHash","type":"string","indexed":false,"internalType":"string"},{"name":"area","type":"uint256","indexed":false,"internalType":"uint256"},{"name":"price","type":"uint256","indexed":false,"internalType":"uint256"}],"anonymous":false},{"type":"event","name":"LandRejected","inputs":[{"name":"tokenId","type":"uint256","indexed":true,"internalType":"uint256"},{"name":"verifier","type":"address","indexed":true,"internalType":"address"},{"name":"reason","type":"string","indexed":false,"internalType":"string"}],"anonymous":false},{"type":"event","name":"LandTransferred","inputs":[{"name":"tokenId","type":"uint256","indexed":true,"internalType":"uint256"},{"name":"from","type":"address","indexed":true,"internalType":"address"},{"name":"to","type":"address","indexed":true,"internalType":"address"},{"name":"timestamp","type":"uint256","indexed":false,"internalType":"uint256"}],"anonymous":false},{"type":"event","name":"LandVerified","inputs":[{"name":"tokenId","type":"uint256","indexed":true,"internalType":"uint256"},{"name":"verifier","type":"address","indexed":true,"internalType":"address"},{"name":"timestamp","type":"uint256","indexed":false,"internalType":"uint256"}],"anonymous":false},{"type":"event","name":"MetadataUpdate","inputs":[{"name":"_tokenId","type":"uint256","indexed":false,"internalType":"uint256"}],"anonymous":false},{"type":"event","name":"MetadataUpdated","inputs":[{"name":"tokenId","type":"uint256","indexed":true,"internalType":"uint256"},{"name":"newIpfsHash","type":"string","indexed":false,"internalType":"string"}],"anonymous":false},{"type":"event","name":"RoleAdminChanged","inputs":[{"name":"role","type":"bytes32","indexed":true,"internalType":"bytes32"},{"name":"previousAdminRole","type":"bytes32","indexed":true,"internalType":"bytes32"},{"name":"newAdminRole","type":"bytes32","indexed":true,"internalType":"bytes32"}],"anonymous":false},{"type":"event","name":"RoleGranted","inputs":[{"name":"role","type":"bytes32","indexed":true,"internalType":"bytes32"},{"name":"account","type":"address","indexed":true,"internalType":"address"},{"name":"sender","type":"address","indexed":true,"internalType":"address"}],"anonymous":false},{"type":"event","name":"RoleRevoked","inputs":[{"name":"role","type":"bytes32","indexed":true,"internalType":"bytes32"},{"name":"account","type":"address","indexed":true,"internalType":"address"},{"name":"sender","type":"address","indexed":true,"internalType":"address"}],"anonymous":false},{"type":"event","name":"Transfer","inputs":[{"name":"from","type":"address","indexed":true,"internalType":"address"},{"name":"to","type":"address","indexed":true,"internalType":"address"},{"name":"tokenId","type":"uint256","indexed":true,"internalType":"uint256"}],"anonymous":false},{"type":"error","name":"AccessControlBadConfirmation","inputs":[]},{"type":"error","name":"AccessControlUnauthorizedAccount","inputs":[{"name":"account","type":"address","internalType":"address"},{"name":"neededRole","type":"bytes32","internalType":"bytes32"}]},{"type":"error","name":"ERC721IncorrectOwner","inputs":[{"name":"sender","type":"address","internalType":"address"},{"name":"tokenId","type":"uint256","internalType":"uint256"},{"name":"owner","type":"address","internalType":"address"}]},{"type":"error","name":"ERC721InsufficientApproval","inputs":[{"name":"operator","type":"address","internalType":"address"},{"name":"tokenId","type":"uint256","internalType":"uint256"}]},{"type":"error","name":"ERC721InvalidApprover","inputs":[{"name":"approver","type":"address","internalType":"address"}]},{"type":"error","name":"ERC721InvalidOperator","inputs":[{"name":"operator","type":"address","internalType":"address"}]},{"type":"error","name":"ERC721InvalidOwner","inputs":[{"name":"owner","type":"address","internalType":"address"}]},{"type":"error","name":"ERC721InvalidReceiver","inputs":[{"name":"receiver","type":"address","internalType":"address"}]},{"type":"error","name":"ERC721InvalidSender","inputs":[{"name":"sender","type":"address","internalType":"address"}]},{"type":"error","name":"ERC721NonexistentToken","inputs":[{"name":"tokenId","type":"uint256","internalType":"uint256"}]}],"bytecode":{"object":"0x608060405234801562000010575f80fd5b506040518060400160405280600c81526020016b4c616e64526567697374727960a01b815250604051806040016040528060048152602001631310539160e21b815250815f908162000063919062000232565b50600162000072828262000232565b506200008391505f905033620000e4565b50620000b07fa49807205ce4d355092ef5a8a18f56e8913cf4a201fbe287825b095693c2177533620000e4565b50620000dd7f0ce23c3e399818cfee81a7ab0880f714e53d7672b08df0fa62f2843416e1ea0933620000e4565b50620002fe565b5f8281526007602090815260408083206001600160a01b038516845290915281205460ff166200018b575f8381526007602090815260408083206001600160a01b03861684529091529020805460ff19166001179055620001423390565b6001600160a01b0316826001600160a01b0316847f2f8788117e7eff1d82e926ec794901d17c78024a50270940304540a733656f0d60405160405180910390a45060016200018e565b505f5b92915050565b634e487b7160e01b5f52604160045260245ffd5b600181811c90821680620001bd57607f821691505b602082108103620001dc57634e487b7160e01b5f52602260045260245ffd5b50919050565b601f8211156200022d57805f5260205f20601f840160051c81016020851015620002095750805b601f840160051c820191505b818110156200022a575f815560010162000215565b50505b505050565b81516001600160401b038111156200024e576200024e62000194565b62000266816200025f8454620001a8565b84620001e2565b602080601f8311600181146200029c575f8415620002845750858301515b5f19600386901b1c1916600185901b178555620002f6565b5f85815260208120601f198616915b82811015620002cc57888601518255948401946001909101908401620002ab565b5085821015620002ea57878501515f19600388901b60f8161c191681555b505060018460011b0185555b505050505050565b6124cc806200030c5f395ff3fe608060405234801561000f575f80fd5b50600436106101c6575f3560e01c806375b238fc116100fe578063b88d4fde1161009e578063e7705db61161006e578063e7705db6146103f2578063e985e9c514610419578063f9c43bdf1461042c578063fe0cb7dc1461043f575f80fd5b8063b88d4fde14610399578063bf5172d7146103ac578063c87b56dd146103cc578063d547741f146103df575f80fd5b806395d89b41116100d957806395d89b4114610364578063a217fddf1461036c578063a22cb46514610373578063b3f40d6a14610386575f80fd5b806375b238fc14610322578063842e7dba1461034957806391d1485414610351575f80fd5b80632f2ff15d1161016957806353c8388e1161014457806353c8388e146102d657806359122393146102e95780636352211e146102fc57806370a082311461030f575f80fd5b80632f2ff15d1461029d57806336568abe146102b057806342842e0e146102c3575f80fd5b8063081812fc116101a4578063081812fc14610228578063095ea7b31461025357806323b872dd14610268578063248a9ca31461027b575f80fd5b806301ffc9a7146101ca57806305682642146101f257806306fdde0314610213575b5f80fd5b6101dd6101d8366004611d77565b61045f565b60405190151581526020015b60405180910390f35b610205610200366004611e37565b61046f565b6040519081526020016101e9565b61021b6106bc565b6040516101e99190611ef6565b61023b610236366004611f08565b61074b565b6040516001600160a01b0390911681526020016101e9565b610266610261366004611f3a565b610772565b005b610266610276366004611f62565b610781565b610205610289366004611f08565b5f9081526007602052604090206001015490565b6102666102ab366004611f9b565b61080a565b6102666102be366004611f9b565b61082e565b6102666102d1366004611f62565b610866565b6102666102e4366004611fc5565b610880565b6102666102f7366004611fc5565b610982565b61023b61030a366004611f08565b610abb565b61020561031d366004612009565b610ac5565b6102057fa49807205ce4d355092ef5a8a18f56e8913cf4a201fbe287825b095693c2177581565b600854610205565b6101dd61035f366004611f9b565b610b0a565b61021b610b34565b6102055f81565b610266610381366004612022565b610b43565b610266610394366004611f3a565b610b4e565b6102666103a736600461205b565b610ce3565b6103bf6103ba366004612009565b610cfb565b6040516101e991906120c6565b61021b6103da366004611f08565b610d64565b6102666103ed366004611f9b565b610de5565b6102057f0ce23c3e399818cfee81a7ab0880f714e53d7672b08df0fa62f2843416e1ea0981565b6101dd610427366004612109565b610e09565b61026661043a366004611f08565b610e36565b61045261044d366004611f08565b610f89565b6040516101e99190612165565b5f61046982611186565b92915050565b5f808551116104c15760405162461bcd60e51b81526020600482015260196024820152784950465320686173682063616e6e6f7420626520656d70747960381b60448201526064015b60405180910390fd5b5f84116105105760405162461bcd60e51b815260206004820152601b60248201527f41726561206d7573742062652067726561746572207468616e2030000000000060448201526064016104b8565b600880545f918261052083612235565b91905055905061053033826111aa565b61053a81876111c3565b60408051610120810182528781526020808201889052818301879052606082018690523360808301525f60a083018190524260c084015260e0830181905261010083018190528481526009909152919091208151819061059a90826122c9565b506020820151600182015560408201516002820155606082015160038201906105c390826122c9565b5060808201516004820180546001600160a01b039092166001600160a01b031983168117825560a0850151926001600160a81b03191617600160a01b83600281111561061157610611612131565b021790555060c0820151600582015560e0820151600682015561010090910151600790910180546001600160a01b0319166001600160a01b03909216919091179055335f818152600a60209081526040808320805460018101825590845291909220018390555182907f0f22631b187cee535d0866556a899c9eecd339f80c9703e1057407b9f452bc1c906106ab908a908a908a90612385565b60405180910390a395945050505050565b60605f80546106ca9061224d565b80601f01602080910402602001604051908101604052809291908181526020018280546106f69061224d565b80156107415780601f1061071857610100808354040283529160200191610741565b820191905f5260205f20905b81548152906001019060200180831161072457829003601f168201915b5050505050905090565b5f61075582611212565b505f828152600460205260409020546001600160a01b0316610469565b61077d82823361124a565b5050565b6001600160a01b0382166107aa57604051633250574960e11b81525f60048201526024016104b8565b5f6107b6838333611257565b9050836001600160a01b0316816001600160a01b031614610804576040516364283d7b60e01b81526001600160a01b03808616600483015260248201849052821660448201526064016104b8565b50505050565b5f8281526007602052604090206001015461082481611349565b6108048383611356565b6001600160a01b03811633146108575760405163334bd91960e11b815260040160405180910390fd5b61086182826113e7565b505050565b61086183838360405180602001604052805f815250610ce3565b3361088a83610abb565b6001600160a01b0316146108d85760405162461bcd60e51b81526020600482015260156024820152742cb7ba9030b932903737ba103a34329037bbb732b960591b60448201526064016104b8565b5f8151116109245760405162461bcd60e51b81526020600482015260196024820152784950465320686173682063616e6e6f7420626520656d70747960381b60448201526064016104b8565b5f82815260096020526040902061093b82826122c9565b5061094682826111c3565b817f459157ba24c7ab9878b165ef465fa6ae2ab42bcd8445f576be378768b0c47309826040516109769190611ef6565b60405180910390a25050565b7f0ce23c3e399818cfee81a7ab0880f714e53d7672b08df0fa62f2843416e1ea096109ac81611349565b5f838152600260205260409020546001600160a01b03166109df5760405162461bcd60e51b81526004016104b8906123a9565b5f8084815260096020526040902060040154600160a01b900460ff166002811115610a0c57610a0c612131565b14610a595760405162461bcd60e51b815260206004820181905260248201527f4c616e64206973206e6f742070656e64696e6720766572696669636174696f6e60448201526064016104b8565b5f8381526009602052604090819020600401805460ff60a01b1916600160a11b17905551339084907f0bfb28b3bcbf7f14c446dcbef3400fd577659d1d8ce6f5a077d6ab8a2994613490610aae908690611ef6565b60405180910390a3505050565b5f61046982611212565b5f6001600160a01b038216610aef576040516322718ad960e21b81525f60048201526024016104b8565b506001600160a01b03165f9081526003602052604090205490565b5f9182526007602090815260408084206001600160a01b0393909316845291905290205460ff1690565b6060600180546106ca9061224d565b61077d338383611452565b33610b5882610abb565b6001600160a01b031614610ba65760405162461bcd60e51b81526020600482015260156024820152742cb7ba9030b932903737ba103a34329037bbb732b960591b60448201526064016104b8565b60015f82815260096020526040902060040154600160a01b900460ff166002811115610bd457610bd4612131565b14610c305760405162461bcd60e51b815260206004820152602660248201527f4f6e6c79207665726966696564206c616e64732063616e206265207472616e7360448201526519995c9c995960d21b60648201526084016104b8565b33610c3b8183611511565b6001600160a01b0383165f818152600a602090815260408083208054600181018255908452828420018690558583526009909152902060040180546001600160a01b0319169091179055610c908184846115cb565b826001600160a01b0316816001600160a01b0316837f20b4587b96d546fb8dda06f8a11cc80fd5debab09bf4795380734af50f3d259c42604051610cd691815260200190565b60405180910390a4505050565b610cee848484610781565b6108043385858585611678565b6001600160a01b0381165f908152600a6020908152604091829020805483518184028101840190945280845260609392830182828015610d5857602002820191905f5260205f20905b815481526020019060010190808311610d44575b50505050509050919050565b6060610d6f82611212565b505f610d8560408051602081019091525f815290565b90505f610d91846117a0565b905081515f03610da2579392505050565b805115610dd4578181604051602001610dbc9291906123d6565b60405160208183030381529060405292505050919050565b610ddd84611835565b949350505050565b5f82815260076020526040902060010154610dff81611349565b61080483836113e7565b6001600160a01b039182165f90815260056020908152604080832093909416825291909152205460ff1690565b7f0ce23c3e399818cfee81a7ab0880f714e53d7672b08df0fa62f2843416e1ea09610e6081611349565b5f828152600260205260409020546001600160a01b0316610e935760405162461bcd60e51b81526004016104b8906123a9565b5f8083815260096020526040902060040154600160a01b900460ff166002811115610ec057610ec0612131565b14610f0d5760405162461bcd60e51b815260206004820181905260248201527f4c616e64206973206e6f742070656e64696e6720766572696669636174696f6e60448201526064016104b8565b5f8281526009602090815260409182902060048101805460ff60a01b1916600160a01b1790554260068201819055600790910180546001600160a01b03191633908117909155925190815284917f3a50d62f47e18d9f4e9816e3ff154bcc0d81d99bec4e87565299b7c5d1a0a61b910160405180910390a35050565b610f91611cfa565b5f828152600260205260409020546001600160a01b0316610fc45760405162461bcd60e51b81526004016104b8906123a9565b5f828152600960205260409081902081516101208101909252805482908290610fec9061224d565b80601f01602080910402602001604051908101604052809291908181526020018280546110189061224d565b80156110635780601f1061103a57610100808354040283529160200191611063565b820191905f5260205f20905b81548152906001019060200180831161104657829003601f168201915b5050505050815260200160018201548152602001600282015481526020016003820180546110909061224d565b80601f01602080910402602001604051908101604052809291908181526020018280546110bc9061224d565b80156111075780601f106110de57610100808354040283529160200191611107565b820191905f5260205f20905b8154815290600101906020018083116110ea57829003601f168201915b505050918352505060048201546001600160a01b0381166020830152604090910190600160a01b900460ff16600281111561114457611144612131565b600281111561115557611155612131565b815260058201546020820152600682015460408201526007909101546001600160a01b031660609091015292915050565b5f6001600160e01b03198216637965db0b60e01b14806104695750610469826118a6565b61077d828260405180602001604052805f8152506118ca565b5f8281526006602052604090206111da82826122c9565b506040518281527ff8e1a15aba9398e019f0b49df1a4fde98ee17ae345cb5f6b5e2c27f5033e8ce79060200160405180910390a15050565b5f818152600260205260408120546001600160a01b03168061046957604051637e27328960e01b8152600481018490526024016104b8565b61086183838360016118e1565b5f828152600260205260408120546001600160a01b0390811690831615611283576112838184866119e5565b6001600160a01b038116156112bd5761129e5f855f806118e1565b6001600160a01b0381165f90815260036020526040902080545f190190555b6001600160a01b038516156112eb576001600160a01b0385165f908152600360205260409020805460010190555b5f8481526002602052604080822080546001600160a01b0319166001600160a01b0389811691821790925591518793918516917fddf252ad1be2c89b69c2b068fc378daa952ba7f163c4a11628f55a4df523b3ef91a4949350505050565b6113538133611a49565b50565b5f6113618383610b0a565b6113e0575f8381526007602090815260408083206001600160a01b03861684529091529020805460ff191660011790556113983390565b6001600160a01b0316826001600160a01b0316847f2f8788117e7eff1d82e926ec794901d17c78024a50270940304540a733656f0d60405160405180910390a4506001610469565b505f610469565b5f6113f28383610b0a565b156113e0575f8381526007602090815260408083206001600160a01b0386168085529252808320805460ff1916905551339286917ff6391f5c32d9c69d2a47ea670b442974b53935d1edc7fd64eb21e047a839171b9190a4506001610469565b6001600160a01b03831661147b5760405163a9fbf51f60e01b81525f60048201526024016104b8565b6001600160a01b0382166114ad57604051630b61174360e31b81526001600160a01b03831660048201526024016104b8565b6001600160a01b038381165f81815260056020908152604080832094871680845294825291829020805460ff191686151590811790915591519182527f17307eab39ab6107e8899845ad3d59bd9653f200f220920489ca2b5937696c319101610aae565b6001600160a01b0382165f908152600a60205260408120905b8154811015610804578282828154811061154657611546612404565b905f5260205f200154036115c3578154829061156490600190612418565b8154811061157457611574612404565b905f5260205f20015482828154811061158f5761158f612404565b905f5260205f200181905550818054806115ab576115ab61242b565b600190038181905f5260205f20015f90559055610804565b60010161152a565b6001600160a01b0382166115f457604051633250574960e11b81525f60048201526024016104b8565b5f61160083835f611257565b90506001600160a01b03811661162c57604051637e27328960e01b8152600481018390526024016104b8565b836001600160a01b0316816001600160a01b031614610804576040516364283d7b60e01b81526001600160a01b03808616600483015260248201849052821660448201526064016104b8565b6001600160a01b0383163b1561179957604051630a85bd0160e11b81526001600160a01b0384169063150b7a02906116ba90889088908790879060040161243f565b6020604051808303815f875af19250505080156116f4575060408051601f3d908101601f191682019092526116f19181019061247b565b60015b61175b573d808015611721576040519150601f19603f3d011682016040523d82523d5f602084013e611726565b606091505b5080515f0361175357604051633250574960e11b81526001600160a01b03851660048201526024016104b8565b805160208201fd5b6001600160e01b03198116630a85bd0160e11b1461179757604051633250574960e11b81526001600160a01b03851660048201526024016104b8565b505b5050505050565b5f8181526006602052604090208054606091906117bc9061224d565b80601f01602080910402602001604051908101604052809291908181526020018280546117e89061224d565b8015610d585780601f1061180a57610100808354040283529160200191610d58565b820191905f5260205f20905b8154815290600101906020018083116118165750939695505050505050565b606061184082611212565b505f61185660408051602081019091525f815290565b90505f8151116118745760405180602001604052805f81525061189f565b8061187e84611a82565b60405160200161188f9291906123d6565b6040516020818303038152906040525b9392505050565b5f6001600160e01b03198216632483248360e11b1480610469575061046982611b12565b6118d48383611b61565b610861335f858585611678565b80806118f557506001600160a01b03821615155b156119b6575f61190484611212565b90506001600160a01b038316158015906119305750826001600160a01b0316816001600160a01b031614155b801561194357506119418184610e09565b155b1561196c5760405163a9fbf51f60e01b81526001600160a01b03841660048201526024016104b8565b81156119b45783856001600160a01b0316826001600160a01b03167f8c5be1e5ebec7d5bd14f71427d1e84f3dd0314c0f7b2291e5b200ac8c7c3b92560405160405180910390a45b505b50505f90815260046020526040902080546001600160a01b0319166001600160a01b0392909216919091179055565b6119f0838383611bc2565b610861576001600160a01b038316611a1e57604051637e27328960e01b8152600481018290526024016104b8565b60405163177e802f60e01b81526001600160a01b0383166004820152602481018290526044016104b8565b611a538282610b0a565b61077d5760405163e2517d3f60e01b81526001600160a01b0382166004820152602481018390526044016104b8565b60605f611a8e83611c23565b60010190505f8167ffffffffffffffff811115611aad57611aad611d92565b6040519080825280601f01601f191660200182016040528015611ad7576020820181803683370190505b5090508181016020015b5f19016f181899199a1a9b1b9c1cb0b131b232b360811b600a86061a8153600a8504945084611ae157509392505050565b5f6001600160e01b031982166380ac58cd60e01b1480611b4257506001600160e01b03198216635b5e139f60e01b145b8061046957506301ffc9a760e01b6001600160e01b0319831614610469565b6001600160a01b038216611b8a57604051633250574960e11b81525f60048201526024016104b8565b5f611b9683835f611257565b90506001600160a01b03811615610861576040516339e3563760e11b81525f60048201526024016104b8565b5f6001600160a01b03831615801590610ddd5750826001600160a01b0316846001600160a01b03161480611bfb5750611bfb8484610e09565b80610ddd5750505f908152600460205260409020546001600160a01b03908116911614919050565b5f8072184f03e93ff9f4daa797ed6e38ed64bf6a1f0160401b8310611c615772184f03e93ff9f4daa797ed6e38ed64bf6a1f0160401b830492506040015b6d04ee2d6d415b85acef81000000008310611c8d576d04ee2d6d415b85acef8100000000830492506020015b662386f26fc100008310611cab57662386f26fc10000830492506010015b6305f5e1008310611cc3576305f5e100830492506008015b6127108310611cd757612710830492506004015b60648310611ce9576064830492506002015b600a83106104695760010192915050565b604051806101200160405280606081526020015f81526020015f8152602001606081526020015f6001600160a01b031681526020015f6002811115611d4157611d41612131565b81526020015f81526020015f81526020015f6001600160a01b031681525090565b6001600160e01b031981168114611353575f80fd5b5f60208284031215611d87575f80fd5b813561189f81611d62565b634e487b7160e01b5f52604160045260245ffd5b5f67ffffffffffffffff80841115611dc057611dc0611d92565b604051601f8501601f19908116603f01168101908282118183101715611de857611de8611d92565b81604052809350858152868686011115611e00575f80fd5b858560208301375f602087830101525050509392505050565b5f82601f830112611e28575f80fd5b61189f83833560208501611da6565b5f805f8060808587031215611e4a575f80fd5b843567ffffffffffffffff80821115611e61575f80fd5b611e6d88838901611e19565b955060208701359450604087013593506060870135915080821115611e90575f80fd5b50611e9d87828801611e19565b91505092959194509250565b5f5b83811015611ec3578181015183820152602001611eab565b50505f910152565b5f8151808452611ee2816020860160208601611ea9565b601f01601f19169290920160200192915050565b602081525f61189f6020830184611ecb565b5f60208284031215611f18575f80fd5b5035919050565b80356001600160a01b0381168114611f35575f80fd5b919050565b5f8060408385031215611f4b575f80fd5b611f5483611f1f565b946020939093013593505050565b5f805f60608486031215611f74575f80fd5b611f7d84611f1f565b9250611f8b60208501611f1f565b9150604084013590509250925092565b5f8060408385031215611fac575f80fd5b82359150611fbc60208401611f1f565b90509250929050565b5f8060408385031215611fd6575f80fd5b82359150602083013567ffffffffffffffff811115611ff3575f80fd5b611fff85828601611e19565b9150509250929050565b5f60208284031215612019575f80fd5b61189f82611f1f565b5f8060408385031215612033575f80fd5b61203c83611f1f565b915060208301358015158114612050575f80fd5b809150509250929050565b5f805f806080858703121561206e575f80fd5b61207785611f1f565b935061208560208601611f1f565b925060408501359150606085013567ffffffffffffffff8111156120a7575f80fd5b8501601f810187136120b7575f80fd5b611e9d87823560208401611da6565b602080825282518282018190525f9190848201906040850190845b818110156120fd578351835292840192918401916001016120e1565b50909695505050505050565b5f806040838503121561211a575f80fd5b61212383611f1f565b9150611fbc60208401611f1f565b634e487b7160e01b5f52602160045260245ffd5b6003811061216157634e487b7160e01b5f52602160045260245ffd5b9052565b602081525f8251610120806020850152612183610140850183611ecb565b915060208501516040850152604085015160608501526060850151601f198584030160808601526121b48382611ecb565b92505060808501516121d160a08601826001600160a01b03169052565b5060a08501516121e460c0860182612145565b5060c085015160e085015260e0850151610100818187015280870151915050612217828601826001600160a01b03169052565b5090949350505050565b634e487b7160e01b5f52601160045260245ffd5b5f6001820161224657612246612221565b5060010190565b600181811c9082168061226157607f821691505b60208210810361227f57634e487b7160e01b5f52602260045260245ffd5b50919050565b601f82111561086157805f5260205f20601f840160051c810160208510156122aa5750805b601f840160051c820191505b81811015611799575f81556001016122b6565b815167ffffffffffffffff8111156122e3576122e3611d92565b6122f7816122f1845461224d565b84612285565b602080601f83116001811461232a575f84156123135750858301515b5f19600386901b1c1916600185901b178555611797565b5f85815260208120601f198616915b8281101561235857888601518255948401946001909101908401612339565b508582101561237557878501515f19600388901b60f8161c191681555b5050505050600190811b01905550565b606081525f6123976060830186611ecb565b60208301949094525060400152919050565b60208082526013908201527213185b9908191bd95cc81b9bdd08195e1a5cdd606a1b604082015260600190565b5f83516123e7818460208801611ea9565b8351908301906123fb818360208801611ea9565b01949350505050565b634e487b7160e01b5f52603260045260245ffd5b8181038181111561046957610469612221565b634e487b7160e01b5f52603160045260245ffd5b6001600160a01b03858116825284166020820152604081018390526080606082018190525f9061247190830184611ecb565b9695505050505050565b5f6020828403121561248b575f80fd5b815161189f81611d6256fea264697066735822122038a2823327739ac0749c861aa39e986fb57ebe59ef9e262ae95662ec138f1b7864736f6c63430008180033","linkReferences":{}},"methodIdentifiers":{"ADMIN_ROLE()":"75b238fc","DEFAULT_ADMIN_ROLE()":"a217fddf","VERIFIER_ROLE()":"e7705db6","approve(address,uint256)":"095ea7b3","balanceOf(address)":"70a08231","getApproved(uint256)":"081812fc","getLandDetails(uint256)":"fe0cb7dc","getOwnerLands(address)":"bf5172d7","getRoleAdmin(bytes32)":"248a9ca3","getTotalLands()":"842e7dba","grantRole(bytes32,address)":"2f2ff15d","hasRole(bytes32,address)":"91d14854","isApprovedForAll(address,address)":"e985e9c5","name()":"06fdde03","ownerOf(uint256)":"6352211e","registerLand(string,uint256,uint256,string)":"05682642","rejectLand(uint256,string)":"59122393","renounceRole(bytes32,address)":"36568abe","revokeRole(bytes32,address)":"d547741f","safeTransferFrom(address,address,uint256)":"42842e0e","safeTransferFrom(address,address,uint256,bytes)":"b88d4fde","setApprovalForAll(address,bool)":"a22cb465","supportsInterface(bytes4)":"01ffc9a7","symbol()":"95d89b41","tokenURI(uint256)":"c87b56dd","transferFrom(address,address,uint256)":"23b872dd","transferLand(address,uint256)":"b3f40d6a","updateMetadata(uint256,string)":"53c8388e","verifyLand(uint256)":"f9c43bdf"},"id":43}